{
  "address": "0xd480364206B187c2A2B00b13Bf3fD2bea6D52f65",
  "abi": [
    {
      "inputs": [],
      "name": "ArrayLengthsMustMatch",
      "type": "error"
    },
    {
      "inputs": [],
      "name": "InsufficientNativeValue",
      "type": "error"
    },
    {
      "inputs": [],
      "name": "InvalidInitialization",
      "type": "error"
    },
    {
      "inputs": [],
      "name": "NotInitializing",
      "type": "error"
    },
    {
      "inputs": [],
      "name": "Unauthorized",
      "type": "error"
    },
    {
      "anonymous": false,
      "inputs": [
        {
          "indexed": false,
          "internalType": "uint64",
          "name": "version",
          "type": "uint64"
        }
      ],
      "name": "Initialized",
      "type": "event"
    },
    {
      "stateMutability": "payable",
      "type": "fallback"
    },
    {
      "inputs": [
        {
          "components": [
            {
              "internalType": "uint32",
              "name": "srcEid",
              "type": "uint32"
            },
            {
              "internalType": "bytes32",
              "name": "sender",
              "type": "bytes32"
            },
            {
              "internalType": "uint64",
              "name": "nonce",
              "type": "uint64"
            }
          ],
          "internalType": "struct Origin",
          "name": "origin",
          "type": "tuple"
        }
      ],
      "name": "allowInitializePath",
      "outputs": [
        {
          "internalType": "bool",
          "name": "",
          "type": "bool"
        }
      ],
      "stateMutability": "view",
      "type": "function"
    },
    {
      "inputs": [
        {
          "internalType": "uint32",
          "name": "dstEid",
          "type": "uint32"
        },
        {
          "internalType": "uint128",
          "name": "amount",
          "type": "uint128"
        },
        {
          "internalType": "address",
          "name": "to",
          "type": "address"
        }
      ],
      "name": "createNativeDropOption",
      "outputs": [
        {
          "internalType": "bytes",
          "name": "",
          "type": "bytes"
        }
      ],
      "stateMutability": "view",
      "type": "function"
    },
    {
      "inputs": [
        {
          "internalType": "uint32",
          "name": "dstEid",
          "type": "uint32"
        }
      ],
      "name": "createReceiveOption",
      "outputs": [
        {
          "internalType": "bytes",
          "name": "",
          "type": "bytes"
        }
      ],
      "stateMutability": "view",
      "type": "function"
    },
    {
      "inputs": [],
      "name": "defaultGasLimit",
      "outputs": [
        {
          "internalType": "uint128",
          "name": "",
          "type": "uint128"
        }
      ],
      "stateMutability": "pure",
      "type": "function"
    },
    {
      "inputs": [],
      "name": "endpoint",
      "outputs": [
        {
          "internalType": "contract ILayerZeroEndpointV2",
          "name": "",
          "type": "address"
        }
      ],
      "stateMutability": "pure",
      "type": "function"
    },
    {
      "inputs": [
        {
          "internalType": "uint32[]",
          "name": "dstEids",
          "type": "uint32[]"
        },
        {
          "internalType": "bytes[]",
          "name": "messages",
          "type": "bytes[]"
        },
        {
          "internalType": "bytes[]",
          "name": "options",
          "type": "bytes[]"
        }
      ],
      "name": "estimateFees",
      "outputs": [
        {
          "internalType": "uint256[]",
          "name": "nativeFees",
          "type": "uint256[]"
        }
      ],
      "stateMutability": "view",
      "type": "function"
    },
    {
      "inputs": [],
      "name": "factory",
      "outputs": [
        {
          "internalType": "address",
          "name": "",
          "type": "address"
        }
      ],
      "stateMutability": "pure",
      "type": "function"
    },
    {
      "inputs": [
        {
          "internalType": "uint32",
          "name": "",
          "type": "uint32"
        }
      ],
      "name": "gasLimitLookup",
      "outputs": [
        {
          "internalType": "uint128",
          "name": "",
          "type": "uint128"
        }
      ],
      "stateMutability": "view",
      "type": "function"
    },
    {
      "inputs": [],
      "name": "initialize",
      "outputs": [],
      "stateMutability": "nonpayable",
      "type": "function"
    },
    {
      "inputs": [
        {
          "components": [
            {
              "internalType": "uint32",
              "name": "srcEid",
              "type": "uint32"
            },
            {
              "internalType": "bytes32",
              "name": "sender",
              "type": "bytes32"
            },
            {
              "internalType": "uint64",
              "name": "nonce",
              "type": "uint64"
            }
          ],
          "internalType": "struct Origin",
          "name": "",
          "type": "tuple"
        },
        {
          "internalType": "bytes32",
          "name": "",
          "type": "bytes32"
        },
        {
          "internalType": "bytes",
          "name": "",
          "type": "bytes"
        },
        {
          "internalType": "address",
          "name": "",
          "type": "address"
        },
        {
          "internalType": "bytes",
          "name": "",
          "type": "bytes"
        }
      ],
      "name": "lzReceive",
      "outputs": [],
      "stateMutability": "pure",
      "type": "function"
    },
    {
      "inputs": [
        {
          "internalType": "uint32",
          "name": "",
          "type": "uint32"
        },
        {
          "internalType": "bytes32",
          "name": "",
          "type": "bytes32"
        }
      ],
      "name": "nextNonce",
      "outputs": [
        {
          "internalType": "uint64",
          "name": "nonce",
          "type": "uint64"
        }
      ],
      "stateMutability": "pure",
      "type": "function"
    },
    {
      "inputs": [],
      "name": "omniNft",
      "outputs": [
        {
          "internalType": "address",
          "name": "",
          "type": "address"
        }
      ],
      "stateMutability": "pure",
      "type": "function"
    },
    {
      "inputs": [
        {
          "internalType": "uint32",
          "name": "",
          "type": "uint32"
        }
      ],
      "name": "peers",
      "outputs": [
        {
          "internalType": "bytes32",
          "name": "",
          "type": "bytes32"
        }
      ],
      "stateMutability": "view",
      "type": "function"
    },
    {
      "inputs": [
        {
          "internalType": "uint32[]",
          "name": "dstEids",
          "type": "uint32[]"
        },
        {
          "internalType": "uint128[]",
          "name": "amounts",
          "type": "uint128[]"
        }
      ],
      "name": "sendDeposits",
      "outputs": [],
      "stateMutability": "payable",
      "type": "function"
    },
    {
      "inputs": [
        {
          "internalType": "uint32[]",
          "name": "dstEids",
          "type": "uint32[]"
        },
        {
          "internalType": "uint128[]",
          "name": "amounts",
          "type": "uint128[]"
        },
        {
          "internalType": "address",
          "name": "to",
          "type": "address"
        }
      ],
      "name": "sendDeposits",
      "outputs": [],
      "stateMutability": "payable",
      "type": "function"
    },
    {
      "inputs": [
        {
          "internalType": "uint32[]",
          "name": "dstEids",
          "type": "uint32[]"
        },
        {
          "internalType": "bytes[]",
          "name": "messages",
          "type": "bytes[]"
        }
      ],
      "name": "sendMessages",
      "outputs": [],
      "stateMutability": "payable",
      "type": "function"
    },
    {
      "inputs": [
        {
          "internalType": "address",
          "name": "delegate",
          "type": "address"
        }
      ],
      "name": "setDelegate",
      "outputs": [],
      "stateMutability": "nonpayable",
      "type": "function"
    },
    {
      "inputs": [
        {
          "internalType": "uint32[]",
          "name": "remoteEids",
          "type": "uint32[]"
        },
        {
          "internalType": "uint128[]",
          "name": "gasLimits",
          "type": "uint128[]"
        }
      ],
      "name": "setGasLimit",
      "outputs": [],
      "stateMutability": "nonpayable",
      "type": "function"
    },
    {
      "inputs": [
        {
          "internalType": "uint32[]",
          "name": "remoteEids",
          "type": "uint32[]"
        },
        {
          "internalType": "bytes32[]",
          "name": "remoteAddresses",
          "type": "bytes32[]"
        }
      ],
      "name": "setPeers",
      "outputs": [],
      "stateMutability": "nonpayable",
      "type": "function"
    },
    {
      "inputs": [
        {
          "internalType": "address",
          "name": "lib",
          "type": "address"
        },
        {
          "internalType": "uint64",
          "name": "confirmations",
          "type": "uint64"
        },
        {
          "internalType": "uint32[]",
          "name": "eids",
          "type": "uint32[]"
        },
        {
          "internalType": "address",
          "name": "dvn",
          "type": "address"
        }
      ],
      "name": "setUlnConfigs",
      "outputs": [],
      "stateMutability": "nonpayable",
      "type": "function"
    },
    {
      "inputs": [
        {
          "internalType": "address",
          "name": "token",
          "type": "address"
        }
      ],
      "name": "withdraw",
      "outputs": [],
      "stateMutability": "nonpayable",
      "type": "function"
    },
    {
      "stateMutability": "payable",
      "type": "receive"
    }
  ],
  "transactionHash": "0x4a579e2843d3c61078ef3e7da347b4b02108aab8523d7f152bd92eaffb21e3ec",
  "args": [],
  "numDeployments": 1,
  "solcInputHash": "cec40c1ed0e8903a7896c6fd04a28b09",
  "bytecode": "0x608060405234801561001057600080fd5b50611c64806100206000396000f3fe60806040526004361061012e5760003560e01c80638129fc1c116100ab578063c45a01551161006f578063c45a015514610392578063ca5eb5e1146103a7578063d25f256f146103c7578063d29e9f32146103da578063ec089c41146103ed578063ff7bd03d1461040d57610135565b80638129fc1c146102dd578063865f54b9146102f257806394ca88aa1461030557806395368d2e14610332578063bb0b6a531461035757610135565b80633772df58116100f25780633772df581461022357806351cff8d9146102435780635e280f11146102635780637154cc65146102785780637d25a05e146102a557610135565b8063128c99911461013f57806313137d651461015f57806327e250c7146101835780632b94e499146101b557806333ebcb74146101d557610135565b3661013557005b61013d61043d565b005b34801561014b57600080fd5b5061013d61015a36600461138b565b6104d5565b34801561016b57600080fd5b5061013d61017a36600461146b565b50505050505050565b34801561018f57600080fd5b506101986105cd565b6040516001600160a01b0390911681526020015b60405180910390f35b3480156101c157600080fd5b5061013d6101d036600461151e565b6105ed565b3480156101e157600080fd5b5061020b6101f03660046115a9565b6001602052600090815260409020546001600160801b031681565b6040516001600160801b0390911681526020016101ac565b34801561022f57600080fd5b5061013d61023e36600461138b565b610840565b34801561024f57600080fd5b5061013d61025e3660046115c4565b610905565b34801561026f57600080fd5b5061019861093b565b34801561028457600080fd5b506102986102933660046115f6565b61094e565b6040516101ac9190611689565b3480156102b157600080fd5b506102c56102c036600461169c565b610963565b6040516001600160401b0390911681526020016101ac565b3480156102e957600080fd5b5061013d61096c565b61013d61030036600461138b565b610a52565b34801561031157600080fd5b506103256103203660046116c6565b610a65565b6040516101ac919061175f565b34801561033e57600080fd5b503660011981013560f01c9003603c013560e81c61020b565b34801561036357600080fd5b506103846103723660046115a9565b60006020819052908152604090205481565b6040519081526020016101ac565b34801561039e57600080fd5b50610198610c92565b3480156103b357600080fd5b5061013d6103c23660046115c4565b610cad565b61013d6103d53660046117a3565b610d46565b61013d6103e836600461138b565b610d53565b3480156103f957600080fd5b506102986104083660046115a9565b610e55565b34801561041957600080fd5b5061042d610428366004611817565b610e60565b60405190151581526020016101ac565b36610446573636f35b6000805b8036821061045857506104b4565b600180830192600319810190351860001a90816104a457600019855260028301933560021984011860001a607f808211610493578282013888395b1694909401909301925061044a9050565b818553808501945050505061044a565b50600038826000305af490503d6000803e806104cf573d6000fd5b503d6000f35b6104dd610c92565b6001600160a01b0316336001600160a01b03161461050d576040516282b42960e81b815260040160405180910390fd5b82811461052d5760405163587543d160e01b815260040160405180910390fd5b60005b838110156105c65782828281811061054a5761054a611833565b905060200201602081019061055f9190611849565b6001600087878581811061057557610575611833565b905060200201602081019061058a91906115a9565b63ffffffff168152602081019190915260400160002080546001600160801b0319166001600160801b0392909216919091179055600101610530565b5050505050565b60006105e860283660011981013560f01c9003013560601c90565b905090565b6105f5610c92565b6001600160a01b0316336001600160a01b031614610625576040516282b42960e81b815260040160405180910390fd5b6000826001600160401b0381111561063f5761063f611864565b60405190808252806020026020018201604052801561068c57816020015b6040805160608082018352600080835260208301529181019190915281526020019060019003908161065d5790505b50905060005b838110156107ce576040805160008082526001602080840182815260608501865293949293928501908036833701905050905084816000815181106106d9576106d9611833565b60200260200101906001600160a01b031690816001600160a01b031681525050604051806060016040528088888681811061071657610716611833565b905060200201602081019061072b91906115a9565b63ffffffff168152602001600263ffffffff1681526020016040518060c001604052808b6001600160401b03168152602001600160ff168152602001600060ff168152602001600060ff1681526020018481526020018581525060405160200161079591906118bf565b6040516020818303038152906040528152508484815181106107b9576107b9611833565b60209081029190910101525050600101610692565b506107d761093b565b6001600160a01b0316636dbd9f903088846040518463ffffffff1660e01b81526004016108069392919061193b565b600060405180830381600087803b15801561082057600080fd5b505af1158015610834573d6000803e3d6000fd5b50505050505050505050565b610848610c92565b6001600160a01b0316336001600160a01b031614610878576040516282b42960e81b815260040160405180910390fd5b8281146108985760405163587543d160e01b815260040160405180910390fd5b60005b838110156105c6578282828181106108b5576108b5611833565b905060200201356000808787858181106108d1576108d1611833565b90506020020160208101906108e691906115a9565b63ffffffff16815260208101919091526040016000205560010161089b565b6001600160a01b0381166109265761092361091e610c92565b610e7e565b50565b61093781610932610c92565b610e9a565b5050565b3660011981013560f01c90033560601c90565b606061095b848484610f12565b949350505050565b60005b92915050565b63409feecd1980546003825580156109a35760018160011c14303b1061099a5763f92ee8a96000526004601cfd5b818160ff1b1b91505b506109ac61093b565b6001600160a01b031663ca5eb5e16109c2610c92565b6040516001600160e01b031960e084901b1681526001600160a01b039091166004820152602401600060405180830381600087803b158015610a0357600080fd5b505af1158015610a17573d6000803e3d6000fd5b505050508015610923576002815560016020527fc7f505b2f371ae2175ee4913f4499e1f2633a7b5936321eed1cdaeb6115181d2602080a150565b610a5f8484848433610f88565b50505050565b6060856001600160401b03811115610a7f57610a7f611864565b604051908082528060200260200182016040528015610aa8578160200160208202803683370190505b50905060005b86811015610c8757610abe61093b565b6001600160a01b031663ddc28c586040518060a001604052808b8b86818110610ae957610ae9611833565b9050602002016020810190610afe91906115a9565b63ffffffff168152602001610b388c8c87818110610b1e57610b1e611833565b9050602002016020810190610b3391906115a9565b6110f3565b8152602001898986818110610b4f57610b4f611833565b9050602002810190610b6191906119df565b8080601f016020809104026020016040519081016040528093929190818152602001838380828437600092019190915250505090825250602001878786818110610bad57610bad611833565b9050602002810190610bbf91906119df565b8080601f01602080910402602001604051908101604052809392919081815260200183838082843760009201829052509385525050506020909101526040516001600160e01b031960e084901b168152610c1e91903090600401611a25565b6040805180830381865afa158015610c3a573d6000803e3d6000fd5b505050506040513d601f19601f82011682018060405250810190610c5e9190611afa565b60000151828281518110610c7457610c74611833565b6020908102919091010152600101610aae565b509695505050505050565b60006105e860143660011981013560f01c9003013560601c90565b610cb5610c92565b6001600160a01b0316336001600160a01b031614610ce5576040516282b42960e81b815260040160405180910390fd5b610ced61093b565b60405163ca5eb5e160e01b81526001600160a01b038381166004830152919091169063ca5eb5e190602401600060405180830381600087803b158015610d3257600080fd5b505af11580156105c6573d6000803e3d6000fd5b6105c68585858585610f88565b6000805b82811015610e3357610e1a868683818110610d7457610d74611833565b9050602002016020810190610d8991906115a9565b858584818110610d9b57610d9b611833565b9050602002810190610dad91906119df565b8080601f016020809104026020016040519081016040528093929190818152602001838380828437600092019190915250610e1392508b91508a905086818110610df957610df9611833565b9050602002016020810190610e0e91906115a9565b611118565b47306111a3565b6040015151610e299083611b2c565b9150600101610d57565b50348111156105c657604051631ac4c73760e11b815260040160405180910390fd5b606061096682611118565b600060208201803590610e7790610b3390856115a9565b1492915050565b60003860003847855af16109235763b12d13eb6000526004601cfd5b60006370a0823160005230602052602060346024601c865afa601f3d1116610eca576390b8ec186000526004601cfd5b81601452603451905063a9059cbb60601b60005260206000604460106000875af13d156001600051141716610f07576390b8ec186000526004601cfd5b600060345292915050565b6060610f1d84611118565b6040516001600160801b0319608086901b1660208201526001600160a01b038416603082015260019060319060029060500160408051601f1981840301815290829052610f709594939291602001611b3f565b60405160208183030381529060405290509392505050565b60008080610f946105cd565b6001600160a01b031614610fb857610fb3610fad6105cd565b33611265565b610fbb565b60005b90506000610fdc606460058411610fd25783610fd5565b60055b6005611291565b9050600061100f3483610ff26064612710611ba6565b610ffc9190611b2c565b611007906001611b2c565b612710611291565b905060005b888110156110c6576110ad8a8a8381811061103157611031611833565b905060200201602081019061104691906115a9565b60405180602001604052806000815250610e138d8d8681811061106b5761106b611833565b905060200201602081019061108091906115a9565b8c8c8781811061109257611092611833565b90506020020160208101906110a79190611849565b8b610f12565b60400151516110bc9086611b2c565b9450600101611014565b50808411156110e857604051631ac4c73760e11b815260040160405180910390fd5b505050505050505050565b63ffffffff811660009081526020819052604081205480820361096657503092915050565b604051600360f01b6020820152606090602201604051602081830303815290604052600160116001611149866112b8565b60405160200161116c919060809190911b6001600160801b031916815260100190565b60408051601f198184030181529082905261118d9594939291602001611b3f565b6040516020818303038152906040529050919050565b6111ab6112f9565b6111b361093b565b6001600160a01b0316632637a450846040518060a001604052808a63ffffffff1681526020016111e28b6110f3565b815260200189815260200188815260200160001515815250856040518463ffffffff1660e01b8152600401611218929190611a25565b60806040518083038185885af1158015611236573d6000803e3d6000fd5b50505050506040513d601f19601f8201168201806040525081019061125b9190611bb9565b9695505050505050565b6000816014526370a0823160601b60005260208060246010865afa601f3d111660205102905092915050565b60008260001904841183021582026112b15763ad251c276000526004601cfd5b5091020490565b63ffffffff81166000908152600160205260408120546001600160801b0316808203610966573660011981013560f01c9003603c013560e81c5b9392505050565b60405180606001604052806000801916815260200160006001600160401b0316815260200161133b604051806040016040528060008152602001600081525090565b905290565b60008083601f84011261135257600080fd5b5081356001600160401b0381111561136957600080fd5b6020830191508360208260051b850101111561138457600080fd5b9250929050565b600080600080604085870312156113a157600080fd5b84356001600160401b03808211156113b857600080fd5b6113c488838901611340565b909650945060208701359150808211156113dd57600080fd5b506113ea87828801611340565b95989497509550505050565b60006060828403121561140857600080fd5b50919050565b60008083601f84011261142057600080fd5b5081356001600160401b0381111561143757600080fd5b60208301915083602082850101111561138457600080fd5b80356001600160a01b038116811461146657600080fd5b919050565b600080600080600080600060e0888a03121561148657600080fd5b61149089896113f6565b96506060880135955060808801356001600160401b03808211156114b357600080fd5b6114bf8b838c0161140e565b90975095508591506114d360a08b0161144f565b945060c08a01359150808211156114e957600080fd5b506114f68a828b0161140e565b989b979a50959850939692959293505050565b6001600160401b038116811461092357600080fd5b60008060008060006080868803121561153657600080fd5b61153f8661144f565b9450602086013561154f81611509565b935060408601356001600160401b0381111561156a57600080fd5b61157688828901611340565b909450925061158990506060870161144f565b90509295509295909350565b803563ffffffff8116811461146657600080fd5b6000602082840312156115bb57600080fd5b6112f282611595565b6000602082840312156115d657600080fd5b6112f28261144f565b80356001600160801b038116811461146657600080fd5b60008060006060848603121561160b57600080fd5b61161484611595565b9250611622602085016115df565b91506116306040850161144f565b90509250925092565b60005b8381101561165457818101518382015260200161163c565b50506000910152565b60008151808452611675816020860160208601611639565b601f01601f19169290920160200192915050565b6020815260006112f2602083018461165d565b600080604083850312156116af57600080fd5b6116b883611595565b946020939093013593505050565b600080600080600080606087890312156116df57600080fd5b86356001600160401b03808211156116f657600080fd5b6117028a838b01611340565b9098509650602089013591508082111561171b57600080fd5b6117278a838b01611340565b9096509450604089013591508082111561174057600080fd5b5061174d89828a01611340565b979a9699509497509295939492505050565b6020808252825182820181905260009190848201906040850190845b818110156117975783518352928401929184019160010161177b565b50909695505050505050565b6000806000806000606086880312156117bb57600080fd5b85356001600160401b03808211156117d257600080fd5b6117de89838a01611340565b909750955060208801359150808211156117f757600080fd5b5061180488828901611340565b909450925061158990506040870161144f565b60006060828403121561182957600080fd5b6112f283836113f6565b634e487b7160e01b600052603260045260246000fd5b60006020828403121561185b57600080fd5b6112f2826115df565b634e487b7160e01b600052604160045260246000fd5b60008151808452602080850194506020840160005b838110156118b45781516001600160a01b03168752958201959082019060010161188f565b509495945050505050565b602081526001600160401b03825116602082015260ff602083015116604082015260ff604083015116606082015260ff60608301511660808201526000608083015160c060a084015261191560e084018261187a565b905060a0840151601f198483030160c0850152611932828261187a565b95945050505050565b6001600160a01b03848116825283166020808301919091526060604080840182905284518285018190526000936080600583901b87018101939290870190888301875b828110156119ce57898703607f190184528151805163ffffffff90811689528682015116868901528601518688018990526119bb8989018261165d565b975050928401929084019060010161197e565b50949b9a5050505050505050505050565b6000808335601e198436030181126119f657600080fd5b8301803591506001600160401b03821115611a1057600080fd5b60200191503681900382131561138457600080fd5b6040815263ffffffff8351166040820152602083015160608201526000604084015160a06080840152611a5b60e084018261165d565b90506060850151603f198483030160a0850152611a78828261165d565b60809690960151151560c08501525050506001600160a01b039190911660209091015290565b600060408284031215611ab057600080fd5b604051604081018181106001600160401b0382111715611ae057634e487b7160e01b600052604160045260246000fd5b604052825181526020928301519281019290925250919050565b600060408284031215611b0c57600080fd5b6112f28383611a9e565b634e487b7160e01b600052601160045260246000fd5b8082018082111561096657610966611b16565b60008651611b51818460208b01611639565b6001600160f81b031960f888811b82169285019283526001600160f01b031960f089901b16600184015286901b1660038201528351611b97816004840160208801611639565b01600401979650505050505050565b8181038181111561096657610966611b16565b600060808284031215611bcb57600080fd5b604051606081018181106001600160401b0382111715611bfb57634e487b7160e01b600052604160045260246000fd5b604052825181526020830151611c1081611509565b6020820152611c228460408501611a9e565b6040820152939250505056fea2646970667358221220c42afe7fd3ff3100db3f10d97e9a6be2bd314f0915d08988fda5c04b3405b25b64736f6c63430008160033",
  "devdoc": {
    "errors": {
      "InvalidInitialization()": [
        {
          "details": "The contract is already initialized."
        }
      ],
      "NotInitializing()": [
        {
          "details": "The contract is not initializing."
        }
      ]
    },
    "events": {
      "Initialized(uint64)": {
        "details": "Triggered when the contract has been initialized."
      }
    },
    "kind": "dev",
    "methods": {},
    "title": "OmniXMultisender",
    "version": 1
  },
  "userdoc": {
    "errors": {
      "InsufficientNativeValue()": [
        {
          "notice": "----------------------------------------------------------------------- Custom Errors -----------------------------------------------------------------------"
        }
      ]
    },
    "kind": "user",
    "methods": {
      "createReceiveOption(uint32)": {
        "notice": "----------------------------------------------------------------------- Read-Only Helpers -----------------------------------------------------------------------"
      },
      "endpoint()": {
        "notice": "----------------------------------------------------------------------- Constants -----------------------------------------------------------------------"
      },
      "initialize()": {
        "notice": "----------------------------------------------------------------------- Initialization -----------------------------------------------------------------------"
      },
      "nextNonce(uint32,bytes32)": {
        "notice": "----------------------------------------------------------------------- Layer Zero Callbacks -----------------------------------------------------------------------"
      },
      "peers(uint32)": {
        "notice": "----------------------------------------------------------------------- Mutables -----------------------------------------------------------------------"
      },
      "sendDeposits(uint32[],uint128[])": {
        "notice": "----------------------------------------------------------------------- Actions -----------------------------------------------------------------------"
      }
    },
    "version": 1
  },
  "storageLayout": {
    "storage": [
      {
        "astId": 2956,
        "contract": "contracts/OmniXMultisender.sol:OmniXMultisender",
        "label": "peers",
        "offset": 0,
        "slot": "0",
        "type": "t_mapping(t_uint32,t_bytes32)"
      },
      {
        "astId": 2960,
        "contract": "contracts/OmniXMultisender.sol:OmniXMultisender",
        "label": "gasLimitLookup",
        "offset": 0,
        "slot": "1",
        "type": "t_mapping(t_uint32,t_uint128)"
      }
    ],
    "types": {
      "t_bytes32": {
        "encoding": "inplace",
        "label": "bytes32",
        "numberOfBytes": "32"
      },
      "t_mapping(t_uint32,t_bytes32)": {
        "encoding": "mapping",
        "key": "t_uint32",
        "label": "mapping(uint32 => bytes32)",
        "numberOfBytes": "32",
        "value": "t_bytes32"
      },
      "t_mapping(t_uint32,t_uint128)": {
        "encoding": "mapping",
        "key": "t_uint32",
        "label": "mapping(uint32 => uint128)",
        "numberOfBytes": "32",
        "value": "t_uint128"
      },
      "t_uint128": {
        "encoding": "inplace",
        "label": "uint128",
        "numberOfBytes": "16"
      },
      "t_uint32": {
        "encoding": "inplace",
        "label": "uint32",
        "numberOfBytes": "4"
      }
    }
  }
}