{
  "address": "0x7120f775480641cA2Ab7eB032EdD33569578e72d",
  "abi": [
    {
      "inputs": [
        {
          "internalType": "address",
          "name": "_endpointAddress",
          "type": "address"
        },
        {
          "internalType": "address",
          "name": "_omniNftAddress",
          "type": "address"
        }
      ],
      "stateMutability": "payable",
      "type": "constructor"
    },
    {
      "inputs": [],
      "name": "AlreadyInitialized",
      "type": "error"
    },
    {
      "inputs": [],
      "name": "ArrayLengthsMustMatch",
      "type": "error"
    },
    {
      "inputs": [],
      "name": "InsufficientNativeValue",
      "type": "error"
    },
    {
      "inputs": [],
      "name": "InvalidInitialization",
      "type": "error"
    },
    {
      "inputs": [],
      "name": "NewOwnerIsZeroAddress",
      "type": "error"
    },
    {
      "inputs": [],
      "name": "NoHandoverRequest",
      "type": "error"
    },
    {
      "inputs": [],
      "name": "NotInitializing",
      "type": "error"
    },
    {
      "inputs": [],
      "name": "Unauthorized",
      "type": "error"
    },
    {
      "anonymous": false,
      "inputs": [
        {
          "indexed": true,
          "internalType": "uint32",
          "name": "remoteEid",
          "type": "uint32"
        },
        {
          "indexed": true,
          "internalType": "uint128",
          "name": "gasLimit",
          "type": "uint128"
        }
      ],
      "name": "GasLimitSet",
      "type": "event"
    },
    {
      "anonymous": false,
      "inputs": [
        {
          "indexed": false,
          "internalType": "uint64",
          "name": "version",
          "type": "uint64"
        }
      ],
      "name": "Initialized",
      "type": "event"
    },
    {
      "anonymous": false,
      "inputs": [
        {
          "indexed": true,
          "internalType": "address",
          "name": "pendingOwner",
          "type": "address"
        }
      ],
      "name": "OwnershipHandoverCanceled",
      "type": "event"
    },
    {
      "anonymous": false,
      "inputs": [
        {
          "indexed": true,
          "internalType": "address",
          "name": "pendingOwner",
          "type": "address"
        }
      ],
      "name": "OwnershipHandoverRequested",
      "type": "event"
    },
    {
      "anonymous": false,
      "inputs": [
        {
          "indexed": true,
          "internalType": "address",
          "name": "oldOwner",
          "type": "address"
        },
        {
          "indexed": true,
          "internalType": "address",
          "name": "newOwner",
          "type": "address"
        }
      ],
      "name": "OwnershipTransferred",
      "type": "event"
    },
    {
      "anonymous": false,
      "inputs": [
        {
          "indexed": true,
          "internalType": "uint32",
          "name": "remoteEid",
          "type": "uint32"
        },
        {
          "indexed": true,
          "internalType": "bytes32",
          "name": "remoteAddress",
          "type": "bytes32"
        }
      ],
      "name": "PeerSet",
      "type": "event"
    },
    {
      "anonymous": false,
      "inputs": [
        {
          "indexed": false,
          "internalType": "address",
          "name": "token",
          "type": "address"
        },
        {
          "indexed": false,
          "internalType": "address",
          "name": "to",
          "type": "address"
        }
      ],
      "name": "Withdrawal",
      "type": "event"
    },
    {
      "stateMutability": "payable",
      "type": "fallback"
    },
    {
      "inputs": [
        {
          "components": [
            {
              "internalType": "uint32",
              "name": "srcEid",
              "type": "uint32"
            },
            {
              "internalType": "bytes32",
              "name": "sender",
              "type": "bytes32"
            },
            {
              "internalType": "uint64",
              "name": "nonce",
              "type": "uint64"
            }
          ],
          "internalType": "struct Origin",
          "name": "origin",
          "type": "tuple"
        }
      ],
      "name": "allowInitializePath",
      "outputs": [
        {
          "internalType": "bool",
          "name": "",
          "type": "bool"
        }
      ],
      "stateMutability": "view",
      "type": "function"
    },
    {
      "inputs": [],
      "name": "cancelOwnershipHandover",
      "outputs": [],
      "stateMutability": "payable",
      "type": "function"
    },
    {
      "inputs": [
        {
          "internalType": "address",
          "name": "pendingOwner",
          "type": "address"
        }
      ],
      "name": "completeOwnershipHandover",
      "outputs": [],
      "stateMutability": "payable",
      "type": "function"
    },
    {
      "inputs": [],
      "name": "convertedAddress",
      "outputs": [
        {
          "internalType": "bytes32",
          "name": "",
          "type": "bytes32"
        }
      ],
      "stateMutability": "view",
      "type": "function"
    },
    {
      "inputs": [
        {
          "internalType": "uint32",
          "name": "dstEid",
          "type": "uint32"
        },
        {
          "internalType": "uint128",
          "name": "amount",
          "type": "uint128"
        },
        {
          "internalType": "address",
          "name": "to",
          "type": "address"
        },
        {
          "internalType": "uint24",
          "name": "customGasLimit",
          "type": "uint24"
        }
      ],
      "name": "createSendDepositOption",
      "outputs": [
        {
          "internalType": "bytes",
          "name": "",
          "type": "bytes"
        }
      ],
      "stateMutability": "view",
      "type": "function"
    },
    {
      "inputs": [],
      "name": "endpoint",
      "outputs": [
        {
          "internalType": "contract ILayerZeroEndpointV2",
          "name": "",
          "type": "address"
        }
      ],
      "stateMutability": "view",
      "type": "function"
    },
    {
      "inputs": [
        {
          "internalType": "uint32[]",
          "name": "_dstEids",
          "type": "uint32[]"
        },
        {
          "internalType": "uint128[]",
          "name": "_amounts",
          "type": "uint128[]"
        },
        {
          "internalType": "address",
          "name": "_to",
          "type": "address"
        }
      ],
      "name": "estimateLZFees",
      "outputs": [
        {
          "internalType": "uint256",
          "name": "",
          "type": "uint256"
        }
      ],
      "stateMutability": "view",
      "type": "function"
    },
    {
      "inputs": [
        {
          "internalType": "uint256",
          "name": "_fee",
          "type": "uint256"
        }
      ],
      "name": "estimateTotalFees",
      "outputs": [
        {
          "internalType": "uint256",
          "name": "",
          "type": "uint256"
        }
      ],
      "stateMutability": "view",
      "type": "function"
    },
    {
      "inputs": [
        {
          "internalType": "uint32",
          "name": "",
          "type": "uint32"
        }
      ],
      "name": "gasLimitLookup",
      "outputs": [
        {
          "internalType": "uint128",
          "name": "",
          "type": "uint128"
        }
      ],
      "stateMutability": "view",
      "type": "function"
    },
    {
      "inputs": [
        {
          "components": [
            {
              "internalType": "uint32",
              "name": "srcEid",
              "type": "uint32"
            },
            {
              "internalType": "bytes32",
              "name": "sender",
              "type": "bytes32"
            },
            {
              "internalType": "uint64",
              "name": "nonce",
              "type": "uint64"
            }
          ],
          "internalType": "struct Origin",
          "name": "",
          "type": "tuple"
        },
        {
          "internalType": "bytes32",
          "name": "",
          "type": "bytes32"
        },
        {
          "internalType": "bytes",
          "name": "",
          "type": "bytes"
        },
        {
          "internalType": "address",
          "name": "",
          "type": "address"
        },
        {
          "internalType": "bytes",
          "name": "",
          "type": "bytes"
        }
      ],
      "name": "lzReceive",
      "outputs": [],
      "stateMutability": "pure",
      "type": "function"
    },
    {
      "inputs": [
        {
          "internalType": "uint32",
          "name": "",
          "type": "uint32"
        },
        {
          "internalType": "bytes32",
          "name": "",
          "type": "bytes32"
        }
      ],
      "name": "nextNonce",
      "outputs": [
        {
          "internalType": "uint64",
          "name": "nonce",
          "type": "uint64"
        }
      ],
      "stateMutability": "pure",
      "type": "function"
    },
    {
      "inputs": [],
      "name": "owner",
      "outputs": [
        {
          "internalType": "address",
          "name": "result",
          "type": "address"
        }
      ],
      "stateMutability": "view",
      "type": "function"
    },
    {
      "inputs": [
        {
          "internalType": "address",
          "name": "pendingOwner",
          "type": "address"
        }
      ],
      "name": "ownershipHandoverExpiresAt",
      "outputs": [
        {
          "internalType": "uint256",
          "name": "result",
          "type": "uint256"
        }
      ],
      "stateMutability": "view",
      "type": "function"
    },
    {
      "inputs": [
        {
          "internalType": "uint32",
          "name": "",
          "type": "uint32"
        }
      ],
      "name": "peers",
      "outputs": [
        {
          "internalType": "bytes32",
          "name": "",
          "type": "bytes32"
        }
      ],
      "stateMutability": "view",
      "type": "function"
    },
    {
      "inputs": [],
      "name": "renounceOwnership",
      "outputs": [],
      "stateMutability": "payable",
      "type": "function"
    },
    {
      "inputs": [],
      "name": "requestOwnershipHandover",
      "outputs": [],
      "stateMutability": "payable",
      "type": "function"
    },
    {
      "inputs": [
        {
          "internalType": "uint32[]",
          "name": "dstEids",
          "type": "uint32[]"
        },
        {
          "internalType": "uint128[]",
          "name": "amounts",
          "type": "uint128[]"
        },
        {
          "internalType": "address",
          "name": "to",
          "type": "address"
        },
        {
          "internalType": "uint24",
          "name": "customGasLimit",
          "type": "uint24"
        }
      ],
      "name": "sendDeposits",
      "outputs": [],
      "stateMutability": "payable",
      "type": "function"
    },
    {
      "inputs": [
        {
          "internalType": "uint32[]",
          "name": "dstEids",
          "type": "uint32[]"
        },
        {
          "internalType": "uint128[]",
          "name": "amounts",
          "type": "uint128[]"
        },
        {
          "internalType": "uint24",
          "name": "customGasLimit",
          "type": "uint24"
        }
      ],
      "name": "sendDeposits_3FF34E",
      "outputs": [],
      "stateMutability": "payable",
      "type": "function"
    },
    {
      "inputs": [
        {
          "internalType": "address",
          "name": "delegate",
          "type": "address"
        }
      ],
      "name": "setDelegate",
      "outputs": [],
      "stateMutability": "nonpayable",
      "type": "function"
    },
    {
      "inputs": [
        {
          "internalType": "uint32[]",
          "name": "remoteEids",
          "type": "uint32[]"
        },
        {
          "internalType": "uint128[]",
          "name": "gasLimits",
          "type": "uint128[]"
        }
      ],
      "name": "setGasLimit",
      "outputs": [],
      "stateMutability": "nonpayable",
      "type": "function"
    },
    {
      "inputs": [
        {
          "internalType": "uint32[]",
          "name": "remoteEids",
          "type": "uint32[]"
        },
        {
          "internalType": "bytes32[]",
          "name": "remoteAddresses",
          "type": "bytes32[]"
        }
      ],
      "name": "setPeers",
      "outputs": [],
      "stateMutability": "nonpayable",
      "type": "function"
    },
    {
      "inputs": [
        {
          "internalType": "address",
          "name": "lib",
          "type": "address"
        },
        {
          "internalType": "uint64",
          "name": "confirmations",
          "type": "uint64"
        },
        {
          "internalType": "uint32[]",
          "name": "eids",
          "type": "uint32[]"
        },
        {
          "internalType": "address",
          "name": "dvn",
          "type": "address"
        }
      ],
      "name": "setUlnConfigs",
      "outputs": [],
      "stateMutability": "nonpayable",
      "type": "function"
    },
    {
      "inputs": [
        {
          "internalType": "address",
          "name": "newOwner",
          "type": "address"
        }
      ],
      "name": "transferOwnership",
      "outputs": [],
      "stateMutability": "payable",
      "type": "function"
    },
    {
      "inputs": [
        {
          "internalType": "address",
          "name": "token",
          "type": "address"
        },
        {
          "internalType": "address",
          "name": "to",
          "type": "address"
        }
      ],
      "name": "withdraw",
      "outputs": [],
      "stateMutability": "nonpayable",
      "type": "function"
    },
    {
      "stateMutability": "payable",
      "type": "receive"
    }
  ],
  "transactionHash": "0x77339d0012e1589c1cf89a117548415c87dde50ddf01494780f1c5a098194690",
  "args": [
    "0x1a44076050125825900e736c501f859c50fE728c",
    "0x018BB96D00309236E6D56046BBD8E9e083cC8CE9"
  ],
  "numDeployments": 3,
  "solcInputHash": "c9e7b87dd0d4692ac1c41742de61c184",
  "bytecode": "0x610100604081905261271060e0526000805460ff19166001179055620023ec388190039081908339810160408190526200003991620000b9565b620000443362000060565b6001600160a01b0391821660a0521660c05230608052620000f1565b6001600160a01b0316638b78c6d8198190558060007f8be0079c531659141344cd1fd0a4f28419497f9722a3daafe3b4186f6b6457e08180a350565b80516001600160a01b0381168114620000b457600080fd5b919050565b60008060408385031215620000cd57600080fd5b620000d8836200009c565b9150620000e8602084016200009c565b90509250929050565b60805160a05160c05160e0516122976200015560003960006115be0152600081816113ba01526113f90152600081816102e601528181610b2501528181610d4901528181611068015261147901526000818161034501526110e101526122976000f3fe60806040526004361061018c5760003560e01c80637d25a05e116100d6578063f04e283e1161007f578063fe8b6f1d11610059578063fe8b6f1d146104a7578063fee81cf4146104c7578063ff7bd03d146104fa57610193565b8063f04e283e14610461578063f2fde38b14610474578063f940e3851461048757610193565b80639970032c116100b05780639970032c14610401578063bb0b6a5314610414578063ca5eb5e11461044157610193565b80637d25a05e146103675780638acb84f3146103a05780638da5cb5b146103cd57610193565b806333ebcb74116101385780635e280f11116101125780635e280f11146102d7578063715018a61461032b57806375e124871461033357610193565b806333ebcb741461024f5780633772df58146102af57806354d1f13d146102cf57610193565b806313137d651161016957806313137d651461020357806325692962146102275780632b94e4991461022f57610193565b8060361461019d5780630430b8df146101b0578063128c9991146101e357610193565b3661019357005b61019b61052f565b005b61019b6101ab366004611714565b610621565b3480156101bc57600080fd5b506101d06101cb3660046117b9565b610636565b6040519081526020015b60405180910390f35b3480156101ef57600080fd5b5061019b6101fe36600461182e565b61064f565b34801561020f57600080fd5b5061019b61021e3660046118f4565b50505050505050565b61019b6107dc565b34801561023b57600080fd5b5061019b61024a3660046119a9565b61082c565b34801561025b57600080fd5b5061028e61026a366004611a29565b6002602052600090815260409020546fffffffffffffffffffffffffffffffff1681565b6040516fffffffffffffffffffffffffffffffff90911681526020016101da565b3480156102bb57600080fd5b5061019b6102ca36600461182e565b610b98565b61019b610cb9565b3480156102e357600080fd5b507f00000000000000000000000000000000000000000000000000000000000000005b60405173ffffffffffffffffffffffffffffffffffffffff90911681526020016101da565b61019b610cf5565b34801561033f57600080fd5b506101d07f000000000000000000000000000000000000000000000000000000000000000081565b34801561037357600080fd5b50610387610382366004611a4b565b610d09565b60405167ffffffffffffffff90911681526020016101da565b3480156103ac57600080fd5b506103c06103bb366004611a95565b610d12565b6040516101da9190611b4d565b3480156103d957600080fd5b507fffffffffffffffffffffffffffffffffffffffffffffffffffffffff7487392754610306565b61019b61040f366004611b60565b610d29565b34801561042057600080fd5b506101d061042f366004611a29565b60016020526000908152604090205481565b34801561044d57600080fd5b5061019b61045c366004611bf0565b610d3f565b61019b61046f366004611bf0565b610de7565b61019b610482366004611bf0565b610e27565b34801561049357600080fd5b5061019b6104a2366004611c0b565b610e4e565b3480156104b357600080fd5b506101d06104c2366004611c3e565b610edf565b3480156104d357600080fd5b506101d06104e2366004611bf0565b63389a75e1600c908152600091909152602090205490565b34801561050657600080fd5b5061051f610515366004611c57565b5060005460ff1690565b60405190151581526020016101da565b36610538573636f35b6000805b8036821061054a5750610600565b81357ffffffffffffffffffffffffffffffffffffffffffffffffffffffffffffffffc83011860001a60018084019350816105f0577fffffffffffffffffffffffffffffffffffffffffffffffffffffffffffffffff85526002830193357ffffffffffffffffffffffffffffffffffffffffffffffffffffffffffffffffd84011860001a607f8082116105df578282013888395b1694909401909301925061053c9050565b818553808501945050505061053c565b50600038826000305af490503d6000803e8061061b573d6000fd5b503d6000f35b61062f858585853386610eea565b5050505050565b60006106458686868686611058565b9695505050505050565b610657611218565b828114610690576040517f587543d100000000000000000000000000000000000000000000000000000000815260040160405180910390fd5b60005b8381101561062f578282828181106106ad576106ad611c73565b90506020020160208101906106c29190611ca2565b600260008787858181106106d8576106d8611c73565b90506020020160208101906106ed9190611a29565b63ffffffff168152602081019190915260400160002080547fffffffffffffffffffffffffffffffff00000000000000000000000000000000166fffffffffffffffffffffffffffffffff9290921691909117905582828281811061075457610754611c73565b90506020020160208101906107699190611ca2565b6fffffffffffffffffffffffffffffffff1685858381811061078d5761078d611c73565b90506020020160208101906107a29190611a29565b63ffffffff167f2de2cdf6b9f29bfb9afedda6cf015c5fcb9832c9c0c3dcc06d501d964cf5653760405160405180910390a3600101610693565b60006202a30067ffffffffffffffff164201905063389a75e1600c5233600052806020600c2055337fdbf36a107da19e49527a7176a1babf963b4b0ff8cde35ee35d6cd8f1f9ac7e1d600080a250565b610834611218565b73ffffffffffffffffffffffffffffffffffffffff8516158061086b575073ffffffffffffffffffffffffffffffffffffffff8116155b15610922576040517f08c379a000000000000000000000000000000000000000000000000000000000815260206004820152604660248201527f4f6d6e69584d756c746973656e6465722e736574556c6e436f6e666967733a2060448201527f456974686572206c6962206f722064766e20706173736564206164647265737360648201527f20697320302e0000000000000000000000000000000000000000000000000000608482015260a40160405180910390fd5b60008267ffffffffffffffff81111561093d5761093d611cbd565b60405190808252806020026020018201604052801561098a57816020015b6040805160608082018352600080835260208301529181019190915281526020019060019003908161095b5790505b50905060005b83811015610ae7576040805160008082526001602080840182815260608501865293949293928501908036833701905050905084816000815181106109d7576109d7611c73565b602002602001019073ffffffffffffffffffffffffffffffffffffffff16908173ffffffffffffffffffffffffffffffffffffffff16815250506040518060600160405280888886818110610a2e57610a2e611c73565b9050602002016020810190610a439190611a29565b63ffffffff168152602001600263ffffffff1681526020016040518060c001604052808b67ffffffffffffffff168152602001600160ff168152602001600060ff168152602001600060ff16815260200184815260200185815250604051602001610aae9190611d3e565b604051602081830303815290604052815250848481518110610ad257610ad2611c73565b60209081029190910101525050600101610990565b506040517f6dbd9f9000000000000000000000000000000000000000000000000000000000815273ffffffffffffffffffffffffffffffffffffffff7f00000000000000000000000000000000000000000000000000000000000000001690636dbd9f9090610b5e9030908a908690600401611dd0565b600060405180830381600087803b158015610b7857600080fd5b505af1158015610b8c573d6000803e3d6000fd5b50505050505050505050565b610ba0611218565b828114610bd9576040517f587543d100000000000000000000000000000000000000000000000000000000815260040160405180910390fd5b60005b8381101561062f57828282818110610bf657610bf6611c73565b9050602002013560016000878785818110610c1357610c13611c73565b9050602002016020810190610c289190611a29565b63ffffffff168152602081019190915260400160002055828282818110610c5157610c51611c73565b90506020020135858583818110610c6a57610c6a611c73565b9050602002016020810190610c7f9190611a29565b63ffffffff167f238399d427b947898edb290f5ff0f9109849b1c3ba196a42e35f00c50a54b98b60405160405180910390a3600101610bdc565b63389a75e1600c523360005260006020600c2055337ffa7b8eab7da67f412cc9575ed43464468f9bfbae89d1675917346ca6d8fe3c92600080a2565b610cfd611218565b610d07600061124e565b565b60005b92915050565b6060610d20858585856112b4565b95945050505050565b610d37868686868686610eea565b505050505050565b610d47611218565b7f00000000000000000000000000000000000000000000000000000000000000006040517fca5eb5e100000000000000000000000000000000000000000000000000000000815273ffffffffffffffffffffffffffffffffffffffff8381166004830152919091169063ca5eb5e190602401600060405180830381600087803b158015610dd357600080fd5b505af115801561062f573d6000803e3d6000fd5b610def611218565b63389a75e1600c52806000526020600c208054421115610e1757636f5e88186000526004601cfd5b60009055610e248161124e565b50565b610e2f611218565b8060601b610e4557637448fbae6000526004601cfd5b610e248161124e565b610e56611218565b73ffffffffffffffffffffffffffffffffffffffff8216610e7f57610e7a81611318565b610e8b565b610e898282611334565b505b6040805173ffffffffffffffffffffffffffffffffffffffff8085168252831660208201527ffee4bd730c5342548069b84e6a6b38c19507a6fe4bbbc4ab6f648b1ed2ad5fc8910160405180910390a15050565b6000610d0c826113b5565b60004781610ef83447611ed0565b905060005b88811015610fb757610f9e8a8a83818110610f1a57610f1a611c73565b9050602002016020810190610f2f9190611a29565b60405180602001604052806000815250610f978d8d86818110610f5457610f54611c73565b9050602002016020810190610f699190611a29565b8c8c87818110610f7b57610f7b611c73565b9050602002016020810190610f909190611ca2565b8b8b6112b4565b473061146f565b6040015151610fad9085611ee3565b9350600101610efd565b506000610fc44784611ed0565b9050838114610fd557610fd5611ef6565b6000610fe0826113b5565b90503481111561101c576040517f35898e6e00000000000000000000000000000000000000000000000000000000815260040160405180910390fd5b60006110288234611ed0565b9050801561103a5761103a338261154d565b8347101561104a5761104a611ef6565b505050505050505050505050565b60008060005b8681101561120d577f000000000000000000000000000000000000000000000000000000000000000073ffffffffffffffffffffffffffffffffffffffff1663ddc28c586040518060a001604052808b8b868181106110bf576110bf611c73565b90506020020160208101906110d49190611a29565b63ffffffff1681526020017f000000000000000000000000000000000000000000000000000000000000000081526020016040518060200160405280600081525081526020016111738c8c8781811061112f5761112f611c73565b90506020020160208101906111449190611a29565b8b8b8881811061115657611156611c73565b905060200201602081019061116b9190611ca2565b8a60006112b4565b815260006020909101526040517fffffffff0000000000000000000000000000000000000000000000000000000060e084901b1681526111b891903090600401611f25565b6040805180830381865afa1580156111d4573d6000803e3d6000fd5b505050506040513d601f19601f820116820180604052508101906111f8919061203f565b516112039083611ee3565b915060010161105e565b509695505050505050565b7fffffffffffffffffffffffffffffffffffffffffffffffffffffffff74873927543314610d07576382b429006000526004601cfd5b7fffffffffffffffffffffffffffffffffffffffffffffffffffffffff74873927805473ffffffffffffffffffffffffffffffffffffffff9092169182907f8be0079c531659141344cd1fd0a4f28419497f9722a3daafe3b4186f6b6457e0600080a355565b606060036001601160016112c8898761156d565b6040516112ff9594939291906001906031906002908d9073ffffffffffffffffffffffffffffffffffffffff8e169060200161205b565b6040516020818303038152906040529050949350505050565b60003860003847855af1610e245763b12d13eb6000526004601cfd5b60006370a0823160005230602052602060346024601c865afa601f3d1116611364576390b8ec186000526004601cfd5b8160145260345190506fa9059cbb00000000000000000000000060005260206000604460106000875af13d1560016000511417166113aa576390b8ec186000526004601cfd5b600060345292915050565b6000807f000000000000000000000000000000000000000000000000000000000000000073ffffffffffffffffffffffffffffffffffffffff16156114235761141e7f0000000000000000000000000000000000000000000000000000000000000000336115ea565b611426565b60005b9050600061144760646005841161143d5783611440565b60055b600561161f565b90506000610d20858361145d6127106064611ee3565b6114679190611ed0565b61271061161f565b611477611668565b7f000000000000000000000000000000000000000000000000000000000000000073ffffffffffffffffffffffffffffffffffffffff16632637a450846040518060a001604052808a63ffffffff1681526020016114d48b611646565b815260200189815260200188815260200160001515815250856040518463ffffffff1660e01b815260040161150a929190611f25565b60806040518083038185885af1158015611528573d6000803e3d6000fd5b50505050506040513d601f19601f8201168201806040525081019061064591906121d2565b60003860003884865af16115695763b12d13eb6000526004601cfd5b5050565b600062ffffff821615611586575062ffffff8116610d0c565b63ffffffff83166000908152600260205260408120546fffffffffffffffffffffffffffffffff16908190036115e357505062ffffff7f000000000000000000000000000000000000000000000000000000000000000016610d0c565b9050610d0c565b6000816014526f70a0823100000000000000000000000060005260208060246010865afa601f3d111660205102905092915050565b600082600019048411830215820261163f5763ad251c276000526004601cfd5b5091020490565b63ffffffff8116600090815260016020526040812054808203610d0c57600080fd5b604051806060016040528060008019168152602001600067ffffffffffffffff1681526020016116ab604051806040016040528060008152602001600081525090565b905290565b60008083601f8401126116c257600080fd5b50813567ffffffffffffffff8111156116da57600080fd5b6020830191508360208260051b85010111156116f557600080fd5b9250929050565b803562ffffff8116811461170f57600080fd5b919050565b60008060008060006060868803121561172c57600080fd5b853567ffffffffffffffff8082111561174457600080fd5b61175089838a016116b0565b9097509550602088013591508082111561176957600080fd5b50611776888289016116b0565b90945092506117899050604087016116fc565b90509295509295909350565b803573ffffffffffffffffffffffffffffffffffffffff8116811461170f57600080fd5b6000806000806000606086880312156117d157600080fd5b853567ffffffffffffffff808211156117e957600080fd5b6117f589838a016116b0565b9097509550602088013591508082111561180e57600080fd5b5061181b888289016116b0565b9094509250611789905060408701611795565b6000806000806040858703121561184457600080fd5b843567ffffffffffffffff8082111561185c57600080fd5b611868888389016116b0565b9096509450602087013591508082111561188157600080fd5b5061188e878288016116b0565b95989497509550505050565b6000606082840312156118ac57600080fd5b50919050565b60008083601f8401126118c457600080fd5b50813567ffffffffffffffff8111156118dc57600080fd5b6020830191508360208285010111156116f557600080fd5b600080600080600080600060e0888a03121561190f57600080fd5b611919898961189a565b965060608801359550608088013567ffffffffffffffff8082111561193d57600080fd5b6119498b838c016118b2565b909750955085915061195d60a08b01611795565b945060c08a013591508082111561197357600080fd5b506119808a828b016118b2565b989b979a50959850939692959293505050565b67ffffffffffffffff81168114610e2457600080fd5b6000806000806000608086880312156119c157600080fd5b6119ca86611795565b945060208601356119da81611993565b9350604086013567ffffffffffffffff8111156119f657600080fd5b611a02888289016116b0565b9094509250611789905060608701611795565b803563ffffffff8116811461170f57600080fd5b600060208284031215611a3b57600080fd5b611a4482611a15565b9392505050565b60008060408385031215611a5e57600080fd5b611a6783611a15565b946020939093013593505050565b80356fffffffffffffffffffffffffffffffff8116811461170f57600080fd5b60008060008060808587031215611aab57600080fd5b611ab485611a15565b9350611ac260208601611a75565b9250611ad060408601611795565b9150611ade606086016116fc565b905092959194509250565b6000815180845260005b81811015611b0f57602081850181015186830182015201611af3565b5060006020828601015260207fffffffffffffffffffffffffffffffffffffffffffffffffffffffffffffffe0601f83011685010191505092915050565b602081526000611a446020830184611ae9565b60008060008060008060808789031215611b7957600080fd5b863567ffffffffffffffff80821115611b9157600080fd5b611b9d8a838b016116b0565b90985096506020890135915080821115611bb657600080fd5b50611bc389828a016116b0565b9095509350611bd6905060408801611795565b9150611be4606088016116fc565b90509295509295509295565b600060208284031215611c0257600080fd5b611a4482611795565b60008060408385031215611c1e57600080fd5b611c2783611795565b9150611c3560208401611795565b90509250929050565b600060208284031215611c5057600080fd5b5035919050565b600060608284031215611c6957600080fd5b611a44838361189a565b7f4e487b7100000000000000000000000000000000000000000000000000000000600052603260045260246000fd5b600060208284031215611cb457600080fd5b611a4482611a75565b7f4e487b7100000000000000000000000000000000000000000000000000000000600052604160045260246000fd5b60008151808452602080850194506020840160005b83811015611d3357815173ffffffffffffffffffffffffffffffffffffffff1687529582019590820190600101611d01565b509495945050505050565b6020815267ffffffffffffffff825116602082015260ff602083015116604082015260ff604083015116606082015260ff60608301511660808201526000608083015160c060a0840152611d9560e0840182611cec565b905060a08401517fffffffffffffffffffffffffffffffffffffffffffffffffffffffffffffffe08483030160c0850152610d208282611cec565b6000606080830173ffffffffffffffffffffffffffffffffffffffff8088168552602081881681870152604091506060604087015282875180855260808801915060808160051b890101945082890160005b82811015611e90578987037fffffffffffffffffffffffffffffffffffffffffffffffffffffffffffffff800184528151805163ffffffff9081168952868201511686890152860151868801899052611e7d89890182611ae9565b9750509284019290840190600101611e22565b50949b9a5050505050505050505050565b7f4e487b7100000000000000000000000000000000000000000000000000000000600052601160045260246000fd5b81810381811115610d0c57610d0c611ea1565b80820180821115610d0c57610d0c611ea1565b7f4e487b7100000000000000000000000000000000000000000000000000000000600052600160045260246000fd5b6040815263ffffffff8351166040820152602083015160608201526000604084015160a06080840152611f5b60e0840182611ae9565b905060608501517fffffffffffffffffffffffffffffffffffffffffffffffffffffffffffffffc08483030160a0850152611f968282611ae9565b60809690960151151560c085015250505073ffffffffffffffffffffffffffffffffffffffff9190911660209091015290565b600060408284031215611fdb57600080fd5b6040516040810181811067ffffffffffffffff82111715612025577f4e487b7100000000000000000000000000000000000000000000000000000000600052604160045260246000fd5b604052825181526020928301519281019290925250919050565b60006040828403121561205157600080fd5b611a448383611fc9565b60007fffff000000000000000000000000000000000000000000000000000000000000808d60f01b1683527fff00000000000000000000000000000000000000000000000000000000000000808d60f81b166002850152818c60f01b166003850152808b60f81b16600585015250507fffffffffffffffffffffffffffffffff000000000000000000000000000000008860801b166006830152612126601683018860f81b7fff00000000000000000000000000000000000000000000000000000000000000169052565b612157601783018760f01b7fffff000000000000000000000000000000000000000000000000000000000000169052565b612188601983018660f81b7fff00000000000000000000000000000000000000000000000000000000000000169052565b6121b9601a83018560801b7fffffffffffffffffffffffffffffffff00000000000000000000000000000000169052565b50602a810191909152604a019998505050505050505050565b6000608082840312156121e457600080fd5b6040516060810181811067ffffffffffffffff8211171561222e577f4e487b7100000000000000000000000000000000000000000000000000000000600052604160045260246000fd5b60405282518152602083015161224381611993565b60208201526122558460408501611fc9565b6040820152939250505056fea26469706673582212209a2f78a85bb8bccaee2e408f8bdf398eff71b127c976ba9ae9c4bb6b6ba7ba2264736f6c63430008160033",
  "devdoc": {
    "errors": {
      "AlreadyInitialized()": [
        {
          "details": "Cannot double-initialize."
        }
      ],
      "InvalidInitialization()": [
        {
          "details": "The contract is already initialized."
        }
      ],
      "NewOwnerIsZeroAddress()": [
        {
          "details": "The `newOwner` cannot be the zero address."
        }
      ],
      "NoHandoverRequest()": [
        {
          "details": "The `pendingOwner` does not have a valid handover request."
        }
      ],
      "NotInitializing()": [
        {
          "details": "The contract is not initializing."
        }
      ],
      "Unauthorized()": [
        {
          "details": "The caller is not authorized to call the function."
        }
      ]
    },
    "events": {
      "Initialized(uint64)": {
        "details": "Triggered when the contract has been initialized."
      },
      "OwnershipHandoverCanceled(address)": {
        "details": "The ownership handover to `pendingOwner` has been canceled."
      },
      "OwnershipHandoverRequested(address)": {
        "details": "An ownership handover to `pendingOwner` has been requested."
      },
      "OwnershipTransferred(address,address)": {
        "details": "The ownership is transferred from `oldOwner` to `newOwner`. This event is intentionally kept the same as OpenZeppelin's Ownable to be compatible with indexers and [EIP-173](https://eips.ethereum.org/EIPS/eip-173), despite it not being as lightweight as a single argument event."
      }
    },
    "kind": "dev",
    "methods": {
      "cancelOwnershipHandover()": {
        "details": "Cancels the two-step ownership handover to the caller, if any."
      },
      "completeOwnershipHandover(address)": {
        "details": "Allows the owner to complete the two-step ownership handover to `pendingOwner`. Reverts if there is no existing ownership handover requested by `pendingOwner`."
      },
      "owner()": {
        "details": "Returns the owner of the contract."
      },
      "ownershipHandoverExpiresAt(address)": {
        "details": "Returns the expiry timestamp for the two-step ownership handover to `pendingOwner`."
      },
      "renounceOwnership()": {
        "details": "Allows the owner to renounce their ownership."
      },
      "requestOwnershipHandover()": {
        "details": "Request a two-step ownership handover to the caller. The request will automatically expire in 48 hours (172800 seconds) by default."
      },
      "transferOwnership(address)": {
        "details": "Allows the owner to transfer the ownership to `newOwner`."
      }
    },
    "title": "OmniXMultisender",
    "version": 1
  },
  "userdoc": {
    "errors": {
      "InsufficientNativeValue()": [
        {
          "notice": "----------------------------------------------------------------------- Custom Errors -----------------------------------------------------------------------"
        }
      ]
    },
    "kind": "user",
    "methods": {
      "convertedAddress()": {
        "notice": "----------------------------------------------------------------------- Constants -----------------------------------------------------------------------"
      },
      "createSendDepositOption(uint32,uint128,address,uint24)": {
        "notice": "----------------------------------------------------------------------- Read-Only Helpers -----------------------------------------------------------------------"
      },
      "nextNonce(uint32,bytes32)": {
        "notice": "----------------------------------------------------------------------- Layer Zero Callbacks -----------------------------------------------------------------------"
      },
      "peers(uint32)": {
        "notice": "----------------------------------------------------------------------- Mutables -----------------------------------------------------------------------"
      },
      "sendDeposits_3FF34E(uint32[],uint128[],uint24)": {
        "notice": "----------------------------------------------------------------------- Actions -----------------------------------------------------------------------"
      },
      "withdraw(address,address)": {
        "notice": "----------------------------------------------------------------------- Only-Owner Logic -----------------------------------------------------------------------"
      }
    },
    "version": 1
  },
  "storageLayout": {
    "storage": [
      {
        "astId": 1551,
        "contract": "contracts/OmniXMultisender.sol:OmniXMultisender",
        "label": "PATH_INITIALIZED_ON_DEPLOYMENT",
        "offset": 0,
        "slot": "0",
        "type": "t_bool"
      },
      {
        "astId": 1556,
        "contract": "contracts/OmniXMultisender.sol:OmniXMultisender",
        "label": "peers",
        "offset": 0,
        "slot": "1",
        "type": "t_mapping(t_uint32,t_bytes32)"
      },
      {
        "astId": 1560,
        "contract": "contracts/OmniXMultisender.sol:OmniXMultisender",
        "label": "gasLimitLookup",
        "offset": 0,
        "slot": "2",
        "type": "t_mapping(t_uint32,t_uint128)"
      }
    ],
    "types": {
      "t_bool": {
        "encoding": "inplace",
        "label": "bool",
        "numberOfBytes": "1"
      },
      "t_bytes32": {
        "encoding": "inplace",
        "label": "bytes32",
        "numberOfBytes": "32"
      },
      "t_mapping(t_uint32,t_bytes32)": {
        "encoding": "mapping",
        "key": "t_uint32",
        "label": "mapping(uint32 => bytes32)",
        "numberOfBytes": "32",
        "value": "t_bytes32"
      },
      "t_mapping(t_uint32,t_uint128)": {
        "encoding": "mapping",
        "key": "t_uint32",
        "label": "mapping(uint32 => uint128)",
        "numberOfBytes": "32",
        "value": "t_uint128"
      },
      "t_uint128": {
        "encoding": "inplace",
        "label": "uint128",
        "numberOfBytes": "16"
      },
      "t_uint32": {
        "encoding": "inplace",
        "label": "uint32",
        "numberOfBytes": "4"
      }
    }
  }
}