{
  "address": "0x7120f775480641cA2Ab7eB032EdD33569578e72d",
  "abi": [
    {
      "inputs": [
        {
          "internalType": "address",
          "name": "_endpointAddress",
          "type": "address"
        }
      ],
      "stateMutability": "payable",
      "type": "constructor"
    },
    {
      "inputs": [],
      "name": "AlreadyInitialized",
      "type": "error"
    },
    {
      "inputs": [],
      "name": "ArrayLengthsMustMatch",
      "type": "error"
    },
    {
      "inputs": [],
      "name": "InsufficientNativeValue",
      "type": "error"
    },
    {
      "inputs": [],
      "name": "NewOwnerIsZeroAddress",
      "type": "error"
    },
    {
      "inputs": [],
      "name": "NoHandoverRequest",
      "type": "error"
    },
    {
      "inputs": [],
      "name": "Unauthorized",
      "type": "error"
    },
    {
      "anonymous": false,
      "inputs": [
        {
          "indexed": true,
          "internalType": "uint32",
          "name": "remoteEid",
          "type": "uint32"
        },
        {
          "indexed": true,
          "internalType": "uint128",
          "name": "gasLimit",
          "type": "uint128"
        }
      ],
      "name": "GasLimitSet",
      "type": "event"
    },
    {
      "anonymous": false,
      "inputs": [
        {
          "indexed": true,
          "internalType": "address",
          "name": "pendingOwner",
          "type": "address"
        }
      ],
      "name": "OwnershipHandoverCanceled",
      "type": "event"
    },
    {
      "anonymous": false,
      "inputs": [
        {
          "indexed": true,
          "internalType": "address",
          "name": "pendingOwner",
          "type": "address"
        }
      ],
      "name": "OwnershipHandoverRequested",
      "type": "event"
    },
    {
      "anonymous": false,
      "inputs": [
        {
          "indexed": true,
          "internalType": "address",
          "name": "oldOwner",
          "type": "address"
        },
        {
          "indexed": true,
          "internalType": "address",
          "name": "newOwner",
          "type": "address"
        }
      ],
      "name": "OwnershipTransferred",
      "type": "event"
    },
    {
      "anonymous": false,
      "inputs": [
        {
          "indexed": true,
          "internalType": "uint32",
          "name": "remoteEid",
          "type": "uint32"
        },
        {
          "indexed": true,
          "internalType": "bytes32",
          "name": "remoteAddress",
          "type": "bytes32"
        }
      ],
      "name": "PeerSet",
      "type": "event"
    },
    {
      "anonymous": false,
      "inputs": [
        {
          "indexed": false,
          "internalType": "address",
          "name": "lib",
          "type": "address"
        },
        {
          "indexed": false,
          "internalType": "uint64",
          "name": "confirmations",
          "type": "uint64"
        },
        {
          "indexed": false,
          "internalType": "uint32[]",
          "name": "eids",
          "type": "uint32[]"
        },
        {
          "indexed": false,
          "internalType": "address",
          "name": "dvn",
          "type": "address"
        }
      ],
      "name": "UlnConfigSet",
      "type": "event"
    },
    {
      "anonymous": false,
      "inputs": [
        {
          "indexed": false,
          "internalType": "address",
          "name": "token",
          "type": "address"
        },
        {
          "indexed": false,
          "internalType": "address",
          "name": "to",
          "type": "address"
        }
      ],
      "name": "Withdrawal",
      "type": "event"
    },
    {
      "stateMutability": "payable",
      "type": "fallback"
    },
    {
      "inputs": [
        {
          "components": [
            {
              "internalType": "uint32",
              "name": "srcEid",
              "type": "uint32"
            },
            {
              "internalType": "bytes32",
              "name": "sender",
              "type": "bytes32"
            },
            {
              "internalType": "uint64",
              "name": "nonce",
              "type": "uint64"
            }
          ],
          "internalType": "struct Origin",
          "name": "origin",
          "type": "tuple"
        }
      ],
      "name": "allowInitializePath",
      "outputs": [
        {
          "internalType": "bool",
          "name": "",
          "type": "bool"
        }
      ],
      "stateMutability": "view",
      "type": "function"
    },
    {
      "inputs": [],
      "name": "cancelOwnershipHandover",
      "outputs": [],
      "stateMutability": "payable",
      "type": "function"
    },
    {
      "inputs": [
        {
          "internalType": "address",
          "name": "pendingOwner",
          "type": "address"
        }
      ],
      "name": "completeOwnershipHandover",
      "outputs": [],
      "stateMutability": "payable",
      "type": "function"
    },
    {
      "inputs": [],
      "name": "convertedAddress",
      "outputs": [
        {
          "internalType": "bytes32",
          "name": "",
          "type": "bytes32"
        }
      ],
      "stateMutability": "view",
      "type": "function"
    },
    {
      "inputs": [
        {
          "internalType": "uint32",
          "name": "dstEid",
          "type": "uint32"
        },
        {
          "internalType": "uint128",
          "name": "amount",
          "type": "uint128"
        },
        {
          "internalType": "address",
          "name": "to",
          "type": "address"
        },
        {
          "internalType": "uint24",
          "name": "customGasLimit",
          "type": "uint24"
        }
      ],
      "name": "createSendDepositOption",
      "outputs": [
        {
          "internalType": "bytes",
          "name": "",
          "type": "bytes"
        }
      ],
      "stateMutability": "view",
      "type": "function"
    },
    {
      "inputs": [],
      "name": "endpoint",
      "outputs": [
        {
          "internalType": "contract ILayerZeroEndpointV2",
          "name": "",
          "type": "address"
        }
      ],
      "stateMutability": "view",
      "type": "function"
    },
    {
      "inputs": [
        {
          "internalType": "uint32[]",
          "name": "_dstEids",
          "type": "uint32[]"
        },
        {
          "internalType": "uint128[]",
          "name": "_amounts",
          "type": "uint128[]"
        },
        {
          "internalType": "address",
          "name": "_to",
          "type": "address"
        }
      ],
      "name": "estimateLZFees",
      "outputs": [
        {
          "internalType": "uint256",
          "name": "",
          "type": "uint256"
        }
      ],
      "stateMutability": "view",
      "type": "function"
    },
    {
      "inputs": [
        {
          "internalType": "uint32",
          "name": "",
          "type": "uint32"
        }
      ],
      "name": "gasLimitLookup",
      "outputs": [
        {
          "internalType": "uint128",
          "name": "",
          "type": "uint128"
        }
      ],
      "stateMutability": "view",
      "type": "function"
    },
    {
      "inputs": [
        {
          "components": [
            {
              "internalType": "uint32",
              "name": "srcEid",
              "type": "uint32"
            },
            {
              "internalType": "bytes32",
              "name": "sender",
              "type": "bytes32"
            },
            {
              "internalType": "uint64",
              "name": "nonce",
              "type": "uint64"
            }
          ],
          "internalType": "struct Origin",
          "name": "",
          "type": "tuple"
        },
        {
          "internalType": "bytes32",
          "name": "",
          "type": "bytes32"
        },
        {
          "internalType": "bytes",
          "name": "",
          "type": "bytes"
        },
        {
          "internalType": "address",
          "name": "",
          "type": "address"
        },
        {
          "internalType": "bytes",
          "name": "",
          "type": "bytes"
        }
      ],
      "name": "lzReceive",
      "outputs": [],
      "stateMutability": "pure",
      "type": "function"
    },
    {
      "inputs": [
        {
          "internalType": "uint32",
          "name": "",
          "type": "uint32"
        },
        {
          "internalType": "bytes32",
          "name": "",
          "type": "bytes32"
        }
      ],
      "name": "nextNonce",
      "outputs": [
        {
          "internalType": "uint64",
          "name": "nonce",
          "type": "uint64"
        }
      ],
      "stateMutability": "pure",
      "type": "function"
    },
    {
      "inputs": [],
      "name": "owner",
      "outputs": [
        {
          "internalType": "address",
          "name": "result",
          "type": "address"
        }
      ],
      "stateMutability": "view",
      "type": "function"
    },
    {
      "inputs": [
        {
          "internalType": "address",
          "name": "pendingOwner",
          "type": "address"
        }
      ],
      "name": "ownershipHandoverExpiresAt",
      "outputs": [
        {
          "internalType": "uint256",
          "name": "result",
          "type": "uint256"
        }
      ],
      "stateMutability": "view",
      "type": "function"
    },
    {
      "inputs": [
        {
          "internalType": "uint32",
          "name": "",
          "type": "uint32"
        }
      ],
      "name": "peers",
      "outputs": [
        {
          "internalType": "bytes32",
          "name": "",
          "type": "bytes32"
        }
      ],
      "stateMutability": "view",
      "type": "function"
    },
    {
      "inputs": [],
      "name": "renounceOwnership",
      "outputs": [],
      "stateMutability": "payable",
      "type": "function"
    },
    {
      "inputs": [],
      "name": "requestOwnershipHandover",
      "outputs": [],
      "stateMutability": "payable",
      "type": "function"
    },
    {
      "inputs": [
        {
          "internalType": "uint32[]",
          "name": "dstEids",
          "type": "uint32[]"
        },
        {
          "internalType": "uint128[]",
          "name": "amounts",
          "type": "uint128[]"
        },
        {
          "internalType": "address",
          "name": "to",
          "type": "address"
        },
        {
          "internalType": "uint24",
          "name": "customGasLimit",
          "type": "uint24"
        }
      ],
      "name": "sendDeposits",
      "outputs": [],
      "stateMutability": "payable",
      "type": "function"
    },
    {
      "inputs": [
        {
          "internalType": "uint32[]",
          "name": "dstEids",
          "type": "uint32[]"
        },
        {
          "internalType": "uint128[]",
          "name": "amounts",
          "type": "uint128[]"
        },
        {
          "internalType": "uint24",
          "name": "customGasLimit",
          "type": "uint24"
        }
      ],
      "name": "sendDeposits_3FF34E",
      "outputs": [],
      "stateMutability": "payable",
      "type": "function"
    },
    {
      "inputs": [
        {
          "internalType": "address",
          "name": "delegate",
          "type": "address"
        }
      ],
      "name": "setDelegate",
      "outputs": [],
      "stateMutability": "nonpayable",
      "type": "function"
    },
    {
      "inputs": [
        {
          "internalType": "uint32[]",
          "name": "remoteEids",
          "type": "uint32[]"
        },
        {
          "internalType": "uint128[]",
          "name": "gasLimits",
          "type": "uint128[]"
        }
      ],
      "name": "setGasLimit",
      "outputs": [],
      "stateMutability": "nonpayable",
      "type": "function"
    },
    {
      "inputs": [
        {
          "internalType": "uint32[]",
          "name": "remoteEids",
          "type": "uint32[]"
        },
        {
          "internalType": "bytes32[]",
          "name": "remoteAddresses",
          "type": "bytes32[]"
        }
      ],
      "name": "setPeers",
      "outputs": [],
      "stateMutability": "nonpayable",
      "type": "function"
    },
    {
      "inputs": [
        {
          "internalType": "address",
          "name": "lib",
          "type": "address"
        },
        {
          "internalType": "uint64",
          "name": "confirmations",
          "type": "uint64"
        },
        {
          "internalType": "uint32[]",
          "name": "eids",
          "type": "uint32[]"
        },
        {
          "internalType": "address",
          "name": "dvn",
          "type": "address"
        }
      ],
      "name": "setUlnConfigs",
      "outputs": [],
      "stateMutability": "nonpayable",
      "type": "function"
    },
    {
      "inputs": [
        {
          "internalType": "address",
          "name": "newOwner",
          "type": "address"
        }
      ],
      "name": "transferOwnership",
      "outputs": [],
      "stateMutability": "payable",
      "type": "function"
    },
    {
      "inputs": [
        {
          "internalType": "address",
          "name": "token",
          "type": "address"
        },
        {
          "internalType": "address",
          "name": "to",
          "type": "address"
        }
      ],
      "name": "withdraw",
      "outputs": [],
      "stateMutability": "nonpayable",
      "type": "function"
    },
    {
      "stateMutability": "payable",
      "type": "receive"
    }
  ],
  "transactionHash": "0x501c6854337b44b6ec234b60e0bc5fed29fc498c411261314240f7559413a026",
  "args": [
    "0x1a44076050125825900e736c501f859c50fE728c"
  ],
  "numDeployments": 3,
  "solcInputHash": "f6cb79a774e8d900f56b02b598637464",
  "bytecode": "0x60e0604081905261271060c0526000805460ff19166001179055620021f738819003908190833981016040819052620000389162000095565b620000433362000059565b6001600160a01b031660a05230608052620000c7565b6001600160a01b0316638b78c6d8198190558060007f8be0079c531659141344cd1fd0a4f28419497f9722a3daafe3b4186f6b6457e08180a350565b600060208284031215620000a857600080fd5b81516001600160a01b0381168114620000c057600080fd5b9392505050565b60805160a05160c0516120dd6200011a60003960006113ed0152600081816102bb015281816109e801528181610c4b01528181610f5101526112a801526000818161031a0152610fca01526120dd6000f3fe6080604052600436106101695760003560e01c806375e12487116100ca578063ca5eb5e111610079578063f940e38511610056578063f940e3851461045c578063fee81cf41461047c578063ff7bd03d146104af57005b8063ca5eb5e114610416578063f04e283e14610436578063f2fde38b1461044957005b80638da5cb5b116100a75780638da5cb5b146103a25780639970032c146103d6578063bb0b6a53146103e957005b806375e12487146103085780637d25a05e1461033c5780638acb84f31461037557005b80632b94e4991161012657806354d1f13d1161010357806354d1f13d146102a45780635e280f11146102ac578063715018a61461030057005b80632b94e4991461020457806333ebcb74146102245780633772df581461028457005b8063128c999111610154578063128c9991146101b857806313137d65146101d857806325692962146101fc57005b806036146101725780630430b8df1461018557005b3661017057005b005b6101706101803660046114e7565b6104e4565b34801561019157600080fd5b506101a56101a036600461158c565b6104f9565b6040519081526020015b60405180910390f35b3480156101c457600080fd5b506101706101d3366004611601565b610512565b3480156101e457600080fd5b506101706101f33660046116c7565b50505050505050565b61017061069f565b34801561021057600080fd5b5061017061021f36600461177c565b6106ef565b34801561023057600080fd5b5061026361023f3660046117fc565b6002602052600090815260409020546fffffffffffffffffffffffffffffffff1681565b6040516fffffffffffffffffffffffffffffffff90911681526020016101af565b34801561029057600080fd5b5061017061029f366004611601565b610a9a565b610170610bbb565b3480156102b857600080fd5b507f00000000000000000000000000000000000000000000000000000000000000005b60405173ffffffffffffffffffffffffffffffffffffffff90911681526020016101af565b610170610bf7565b34801561031457600080fd5b506101a57f000000000000000000000000000000000000000000000000000000000000000081565b34801561034857600080fd5b5061035c61035736600461181e565b610c0b565b60405167ffffffffffffffff90911681526020016101af565b34801561038157600080fd5b50610395610390366004611868565b610c14565b6040516101af9190611920565b3480156103ae57600080fd5b507fffffffffffffffffffffffffffffffffffffffffffffffffffffffff74873927546102db565b6101706103e4366004611933565b610c2b565b3480156103f557600080fd5b506101a56104043660046117fc565b60016020526000908152604090205481565b34801561042257600080fd5b506101706104313660046119c3565b610c41565b6101706104443660046119c3565b610ce9565b6101706104573660046119c3565b610d29565b34801561046857600080fd5b506101706104773660046119de565b610d50565b34801561048857600080fd5b506101a56104973660046119c3565b63389a75e1600c908152600091909152602090205490565b3480156104bb57600080fd5b506104d46104ca366004611a11565b5060005460ff1690565b60405190151581526020016101af565b6104f2858585853386610de1565b5050505050565b60006105088686868686610f41565b9695505050505050565b61051a611101565b828114610553576040517f587543d100000000000000000000000000000000000000000000000000000000815260040160405180910390fd5b60005b838110156104f25782828281811061057057610570611a2d565b90506020020160208101906105859190611a5c565b6002600087878581811061059b5761059b611a2d565b90506020020160208101906105b091906117fc565b63ffffffff168152602081019190915260400160002080547fffffffffffffffffffffffffffffffff00000000000000000000000000000000166fffffffffffffffffffffffffffffffff9290921691909117905582828281811061061757610617611a2d565b905060200201602081019061062c9190611a5c565b6fffffffffffffffffffffffffffffffff1685858381811061065057610650611a2d565b905060200201602081019061066591906117fc565b63ffffffff167f2de2cdf6b9f29bfb9afedda6cf015c5fcb9832c9c0c3dcc06d501d964cf5653760405160405180910390a3600101610556565b60006202a30067ffffffffffffffff164201905063389a75e1600c5233600052806020600c2055337fdbf36a107da19e49527a7176a1babf963b4b0ff8cde35ee35d6cd8f1f9ac7e1d600080a250565b6106f7611101565b73ffffffffffffffffffffffffffffffffffffffff8516158061072e575073ffffffffffffffffffffffffffffffffffffffff8116155b156107e5576040517f08c379a000000000000000000000000000000000000000000000000000000000815260206004820152604660248201527f4f6d6e69584d756c746973656e6465722e736574556c6e436f6e666967733a2060448201527f456974686572206c6962206f722064766e20706173736564206164647265737360648201527f20697320302e0000000000000000000000000000000000000000000000000000608482015260a40160405180910390fd5b60008267ffffffffffffffff81111561080057610800611a77565b60405190808252806020026020018201604052801561084d57816020015b6040805160608082018352600080835260208301529181019190915281526020019060019003908161081e5790505b50905060005b838110156109aa5760408051600080825260016020808401828152606085018652939492939285019080368337019050509050848160008151811061089a5761089a611a2d565b602002602001019073ffffffffffffffffffffffffffffffffffffffff16908173ffffffffffffffffffffffffffffffffffffffff168152505060405180606001604052808888868181106108f1576108f1611a2d565b905060200201602081019061090691906117fc565b63ffffffff168152602001600263ffffffff1681526020016040518060c001604052808b67ffffffffffffffff168152602001600160ff168152602001600060ff168152602001600060ff168152602001848152602001858152506040516020016109719190611af8565b60405160208183030381529060405281525084848151811061099557610995611a2d565b60209081029190910101525050600101610853565b506040517f6dbd9f9000000000000000000000000000000000000000000000000000000000815273ffffffffffffffffffffffffffffffffffffffff7f00000000000000000000000000000000000000000000000000000000000000001690636dbd9f9090610a219030908a908690600401611b8a565b600060405180830381600087803b158015610a3b57600080fd5b505af1158015610a4f573d6000803e3d6000fd5b505050507f8ce0e970993876be65cfab2afed5b82cb75481532a46bbd39b704bed04375b848686868686604051610a8a959493929190611c5b565b60405180910390a1505050505050565b610aa2611101565b828114610adb576040517f587543d100000000000000000000000000000000000000000000000000000000815260040160405180910390fd5b60005b838110156104f257828282818110610af857610af8611a2d565b9050602002013560016000878785818110610b1557610b15611a2d565b9050602002016020810190610b2a91906117fc565b63ffffffff168152602081019190915260400160002055828282818110610b5357610b53611a2d565b90506020020135858583818110610b6c57610b6c611a2d565b9050602002016020810190610b8191906117fc565b63ffffffff167f238399d427b947898edb290f5ff0f9109849b1c3ba196a42e35f00c50a54b98b60405160405180910390a3600101610ade565b63389a75e1600c523360005260006020600c2055337ffa7b8eab7da67f412cc9575ed43464468f9bfbae89d1675917346ca6d8fe3c92600080a2565b610bff611101565b610c096000611137565b565b60005b92915050565b6060610c228585858561119d565b95945050505050565b610c39868686868686610de1565b505050505050565b610c49611101565b7f00000000000000000000000000000000000000000000000000000000000000006040517fca5eb5e100000000000000000000000000000000000000000000000000000000815273ffffffffffffffffffffffffffffffffffffffff8381166004830152919091169063ca5eb5e190602401600060405180830381600087803b158015610cd557600080fd5b505af11580156104f2573d6000803e3d6000fd5b610cf1611101565b63389a75e1600c52806000526020600c208054421115610d1957636f5e88186000526004601cfd5b60009055610d2681611137565b50565b610d31611101565b8060601b610d4757637448fbae6000526004601cfd5b610d2681611137565b610d58611101565b73ffffffffffffffffffffffffffffffffffffffff8216610d8157610d7c81611201565b610d8d565b610d8b828261121d565b505b6040805173ffffffffffffffffffffffffffffffffffffffff8085168252831660208201527ffee4bd730c5342548069b84e6a6b38c19507a6fe4bbbc4ab6f648b1ed2ad5fc8910160405180910390a15050565b60004781610def3447611d16565b905060005b88811015610eae57610e958a8a83818110610e1157610e11611a2d565b9050602002016020810190610e2691906117fc565b60405180602001604052806000815250610e8e8d8d86818110610e4b57610e4b611a2d565b9050602002016020810190610e6091906117fc565b8c8c87818110610e7257610e72611a2d565b9050602002016020810190610e879190611a5c565b8b8b61119d565b473061129e565b6040015151610ea49085611d29565b9350600101610df4565b506000610ebb4784611d16565b9050838114610ecc57610ecc611d3c565b34811115610f06576040517f35898e6e00000000000000000000000000000000000000000000000000000000815260040160405180910390fd5b6000610f128234611d16565b90508015610f2457610f24338261137c565b82471015610f3457610f34611d3c565b5050505050505050505050565b60008060005b868110156110f6577f000000000000000000000000000000000000000000000000000000000000000073ffffffffffffffffffffffffffffffffffffffff1663ddc28c586040518060a001604052808b8b86818110610fa857610fa8611a2d565b9050602002016020810190610fbd91906117fc565b63ffffffff1681526020017f0000000000000000000000000000000000000000000000000000000000000000815260200160405180602001604052806000815250815260200161105c8c8c8781811061101857611018611a2d565b905060200201602081019061102d91906117fc565b8b8b8881811061103f5761103f611a2d565b90506020020160208101906110549190611a5c565b8a600061119d565b815260006020909101526040517fffffffff0000000000000000000000000000000000000000000000000000000060e084901b1681526110a191903090600401611d6b565b6040805180830381865afa1580156110bd573d6000803e3d6000fd5b505050506040513d601f19601f820116820180604052508101906110e19190611e85565b516110ec9083611d29565b9150600101610f47565b509695505050505050565b7fffffffffffffffffffffffffffffffffffffffffffffffffffffffff74873927543314610c09576382b429006000526004601cfd5b7fffffffffffffffffffffffffffffffffffffffffffffffffffffffff74873927805473ffffffffffffffffffffffffffffffffffffffff9092169182907f8be0079c531659141344cd1fd0a4f28419497f9722a3daafe3b4186f6b6457e0600080a355565b606060036001601160016111b1898761139c565b6040516111e89594939291906001906031906002908d9073ffffffffffffffffffffffffffffffffffffffff8e1690602001611ea1565b6040516020818303038152906040529050949350505050565b60003860003847855af1610d265763b12d13eb6000526004601cfd5b60006370a0823160005230602052602060346024601c865afa601f3d111661124d576390b8ec186000526004601cfd5b8160145260345190506fa9059cbb00000000000000000000000060005260206000604460106000875af13d156001600051141716611293576390b8ec186000526004601cfd5b600060345292915050565b6112a661143b565b7f000000000000000000000000000000000000000000000000000000000000000073ffffffffffffffffffffffffffffffffffffffff16632637a450846040518060a001604052808a63ffffffff1681526020016113038b611419565b815260200189815260200188815260200160001515815250856040518463ffffffff1660e01b8152600401611339929190611d6b565b60806040518083038185885af1158015611357573d6000803e3d6000fd5b50505050506040513d601f19601f820116820180604052508101906105089190612018565b60003860003884865af16113985763b12d13eb6000526004601cfd5b5050565b600062ffffff8216156113b5575062ffffff8116610c0e565b63ffffffff83166000908152600260205260408120546fffffffffffffffffffffffffffffffff169081900361141257505062ffffff7f000000000000000000000000000000000000000000000000000000000000000016610c0e565b9050610c0e565b63ffffffff8116600090815260016020526040812054808203610c0e57600080fd5b604051806060016040528060008019168152602001600067ffffffffffffffff16815260200161147e604051806040016040528060008152602001600081525090565b905290565b60008083601f84011261149557600080fd5b50813567ffffffffffffffff8111156114ad57600080fd5b6020830191508360208260051b85010111156114c857600080fd5b9250929050565b803562ffffff811681146114e257600080fd5b919050565b6000806000806000606086880312156114ff57600080fd5b853567ffffffffffffffff8082111561151757600080fd5b61152389838a01611483565b9097509550602088013591508082111561153c57600080fd5b5061154988828901611483565b909450925061155c9050604087016114cf565b90509295509295909350565b803573ffffffffffffffffffffffffffffffffffffffff811681146114e257600080fd5b6000806000806000606086880312156115a457600080fd5b853567ffffffffffffffff808211156115bc57600080fd5b6115c889838a01611483565b909750955060208801359150808211156115e157600080fd5b506115ee88828901611483565b909450925061155c905060408701611568565b6000806000806040858703121561161757600080fd5b843567ffffffffffffffff8082111561162f57600080fd5b61163b88838901611483565b9096509450602087013591508082111561165457600080fd5b5061166187828801611483565b95989497509550505050565b60006060828403121561167f57600080fd5b50919050565b60008083601f84011261169757600080fd5b50813567ffffffffffffffff8111156116af57600080fd5b6020830191508360208285010111156114c857600080fd5b600080600080600080600060e0888a0312156116e257600080fd5b6116ec898961166d565b965060608801359550608088013567ffffffffffffffff8082111561171057600080fd5b61171c8b838c01611685565b909750955085915061173060a08b01611568565b945060c08a013591508082111561174657600080fd5b506117538a828b01611685565b989b979a50959850939692959293505050565b67ffffffffffffffff81168114610d2657600080fd5b60008060008060006080868803121561179457600080fd5b61179d86611568565b945060208601356117ad81611766565b9350604086013567ffffffffffffffff8111156117c957600080fd5b6117d588828901611483565b909450925061155c905060608701611568565b803563ffffffff811681146114e257600080fd5b60006020828403121561180e57600080fd5b611817826117e8565b9392505050565b6000806040838503121561183157600080fd5b61183a836117e8565b946020939093013593505050565b80356fffffffffffffffffffffffffffffffff811681146114e257600080fd5b6000806000806080858703121561187e57600080fd5b611887856117e8565b935061189560208601611848565b92506118a360408601611568565b91506118b1606086016114cf565b905092959194509250565b6000815180845260005b818110156118e2576020818501810151868301820152016118c6565b5060006020828601015260207fffffffffffffffffffffffffffffffffffffffffffffffffffffffffffffffe0601f83011685010191505092915050565b60208152600061181760208301846118bc565b6000806000806000806080878903121561194c57600080fd5b863567ffffffffffffffff8082111561196457600080fd5b6119708a838b01611483565b9098509650602089013591508082111561198957600080fd5b5061199689828a01611483565b90955093506119a9905060408801611568565b91506119b7606088016114cf565b90509295509295509295565b6000602082840312156119d557600080fd5b61181782611568565b600080604083850312156119f157600080fd5b6119fa83611568565b9150611a0860208401611568565b90509250929050565b600060608284031215611a2357600080fd5b611817838361166d565b7f4e487b7100000000000000000000000000000000000000000000000000000000600052603260045260246000fd5b600060208284031215611a6e57600080fd5b61181782611848565b7f4e487b7100000000000000000000000000000000000000000000000000000000600052604160045260246000fd5b60008151808452602080850194506020840160005b83811015611aed57815173ffffffffffffffffffffffffffffffffffffffff1687529582019590820190600101611abb565b509495945050505050565b6020815267ffffffffffffffff825116602082015260ff602083015116604082015260ff604083015116606082015260ff60608301511660808201526000608083015160c060a0840152611b4f60e0840182611aa6565b905060a08401517fffffffffffffffffffffffffffffffffffffffffffffffffffffffffffffffe08483030160c0850152610c228282611aa6565b6000606080830173ffffffffffffffffffffffffffffffffffffffff8088168552602081881681870152604091506060604087015282875180855260808801915060808160051b890101945082890160005b82811015611c4a578987037fffffffffffffffffffffffffffffffffffffffffffffffffffffffffffffff800184528151805163ffffffff9081168952868201511686890152860151868801899052611c37898901826118bc565b9750509284019290840190600101611bdc565b50949b9a5050505050505050505050565b60006080820173ffffffffffffffffffffffffffffffffffffffff8089168452602067ffffffffffffffff89166020860152608060408601528287845260a08601905088935060005b88811015611ccd5763ffffffff611cba866117e8565b1682529382019390820190600101611ca4565b508094505050808516606085015250509695505050505050565b7f4e487b7100000000000000000000000000000000000000000000000000000000600052601160045260246000fd5b81810381811115610c0e57610c0e611ce7565b80820180821115610c0e57610c0e611ce7565b7f4e487b7100000000000000000000000000000000000000000000000000000000600052600160045260246000fd5b6040815263ffffffff8351166040820152602083015160608201526000604084015160a06080840152611da160e08401826118bc565b905060608501517fffffffffffffffffffffffffffffffffffffffffffffffffffffffffffffffc08483030160a0850152611ddc82826118bc565b60809690960151151560c085015250505073ffffffffffffffffffffffffffffffffffffffff9190911660209091015290565b600060408284031215611e2157600080fd5b6040516040810181811067ffffffffffffffff82111715611e6b577f4e487b7100000000000000000000000000000000000000000000000000000000600052604160045260246000fd5b604052825181526020928301519281019290925250919050565b600060408284031215611e9757600080fd5b6118178383611e0f565b60007fffff000000000000000000000000000000000000000000000000000000000000808d60f01b1683527fff00000000000000000000000000000000000000000000000000000000000000808d60f81b166002850152818c60f01b166003850152808b60f81b16600585015250507fffffffffffffffffffffffffffffffff000000000000000000000000000000008860801b166006830152611f6c601683018860f81b7fff00000000000000000000000000000000000000000000000000000000000000169052565b611f9d601783018760f01b7fffff000000000000000000000000000000000000000000000000000000000000169052565b611fce601983018660f81b7fff00000000000000000000000000000000000000000000000000000000000000169052565b611fff601a83018560801b7fffffffffffffffffffffffffffffffff00000000000000000000000000000000169052565b50602a810191909152604a019998505050505050505050565b60006080828403121561202a57600080fd5b6040516060810181811067ffffffffffffffff82111715612074577f4e487b7100000000000000000000000000000000000000000000000000000000600052604160045260246000fd5b60405282518152602083015161208981611766565b602082015261209b8460408501611e0f565b6040820152939250505056fea264697066735822122011e12e659035a33fcd50605382b173b877dc5835728e2facae96a13801269aef64736f6c63430008160033",
  "devdoc": {
    "author": "Omni X",
    "custom:donation": "This contract is completely free to use and fork, we do not take any extra fees. If you would like to donate you can send ETH or ERC-20s directly here, thank you ",
    "details": "This multisender implementation is close to perfect for plain solidity, but can be even further improved upon with inline assembly, yul, etc.",
    "errors": {
      "AlreadyInitialized()": [
        {
          "details": "Cannot double-initialize."
        }
      ],
      "NewOwnerIsZeroAddress()": [
        {
          "details": "The `newOwner` cannot be the zero address."
        }
      ],
      "NoHandoverRequest()": [
        {
          "details": "The `pendingOwner` does not have a valid handover request."
        }
      ],
      "Unauthorized()": [
        {
          "details": "The caller is not authorized to call the function."
        }
      ]
    },
    "events": {
      "OwnershipHandoverCanceled(address)": {
        "details": "The ownership handover to `pendingOwner` has been canceled."
      },
      "OwnershipHandoverRequested(address)": {
        "details": "An ownership handover to `pendingOwner` has been requested."
      },
      "OwnershipTransferred(address,address)": {
        "details": "The ownership is transferred from `oldOwner` to `newOwner`. This event is intentionally kept the same as OpenZeppelin's Ownable to be compatible with indexers and [EIP-173](https://eips.ethereum.org/EIPS/eip-173), despite it not being as lightweight as a single argument event."
      }
    },
    "kind": "dev",
    "methods": {
      "cancelOwnershipHandover()": {
        "details": "Cancels the two-step ownership handover to the caller, if any."
      },
      "completeOwnershipHandover(address)": {
        "details": "Allows the owner to complete the two-step ownership handover to `pendingOwner`. Reverts if there is no existing ownership handover requested by `pendingOwner`."
      },
      "owner()": {
        "details": "Returns the owner of the contract."
      },
      "ownershipHandoverExpiresAt(address)": {
        "details": "Returns the expiry timestamp for the two-step ownership handover to `pendingOwner`."
      },
      "renounceOwnership()": {
        "details": "Allows the owner to renounce their ownership."
      },
      "requestOwnershipHandover()": {
        "details": "Request a two-step ownership handover to the caller. The request will automatically expire in 48 hours (172800 seconds) by default."
      },
      "sendDeposits(uint32[],uint128[],address,uint24)": {
        "details": "This function's name and place in the call stack has not been optimized as most of the time users will send the gas to themselves"
      },
      "sendDeposits_3FF34E(uint32[],uint128[],uint24)": {
        "details": "The name of the function has been selected to optimize for its place at the top of the dispatch order, as well as using calldata instead of memory for further performance."
      },
      "setPeers(uint32[],bytes32[])": {
        "details": "Set peers for your contract. Deploy at once on all chains from a clean wallet to have the same address, alternatively you can try various CREATE2 and CREATE3 tools."
      },
      "setUlnConfigs(address,uint64,uint32[],address)": {
        "details": "lib version, number of confirmations and DVN MUST match EXACTLY between two chains for the contract to work."
      },
      "transferOwnership(address)": {
        "details": "Allows the owner to transfer the ownership to `newOwner`."
      }
    },
    "stateVariables": {
      "defaultGasLimit": {
        "details": "This gas limit value will be used unless a function specifies the value explicitly or it has been set in gasLimitLookup by the owner"
      }
    },
    "title": "Omni X Multisender",
    "version": 1
  },
  "userdoc": {
    "errors": {
      "InsufficientNativeValue()": [
        {
          "notice": "----------------------------------------------------------------------- Custom Errors -----------------------------------------------------------------------"
        }
      ]
    },
    "events": {
      "PeerSet(uint32,bytes32)": {
        "notice": "----------------------------------------------------------------------- Events -----------------------------------------------------------------------"
      }
    },
    "kind": "user",
    "methods": {
      "convertedAddress()": {
        "notice": "----------------------------------------------------------------------- Constants -----------------------------------------------------------------------"
      },
      "createSendDepositOption(uint32,uint128,address,uint24)": {
        "notice": "----------------------------------------------------------------------- Read-Only Helpers -----------------------------------------------------------------------"
      },
      "estimateLZFees(uint32[],uint128[],address)": {
        "notice": "Use this function to estimate fees for your cross-chain send. It is reccomended to pass a slightly higher value than returned from here for better UX, any excess will be refunded back to the user."
      },
      "nextNonce(uint32,bytes32)": {
        "notice": "----------------------------------------------------------------------- Layer Zero Callbacks -----------------------------------------------------------------------"
      },
      "peers(uint32)": {
        "notice": "----------------------------------------------------------------------- Mutables -----------------------------------------------------------------------"
      },
      "sendDeposits(uint32[],uint128[],address,uint24)": {
        "notice": "Same sendDeposits function as above just to a different address than your own."
      },
      "sendDeposits_3FF34E(uint32[],uint128[],uint24)": {
        "notice": "Use this function to send funds on any number of supported chains. Use 0 for customGasLimit if you do not want to override the default one."
      },
      "setGasLimit(uint32[],uint128[])": {
        "notice": "Set a custom gas limit for a number of paths."
      },
      "withdraw(address,address)": {
        "notice": "----------------------------------------------------------------------- Only-Owner Logic -----------------------------------------------------------------------"
      }
    },
    "notice": "Omni X Mutlsender allows you to send gas aka refuel your account on a number of EVM chains at once with no fees and close to perfect gas optimizations",
    "version": 1
  },
  "storageLayout": {
    "storage": [
      {
        "astId": 1554,
        "contract": "contracts/OmniXMultisender.sol:OmniXMultisender",
        "label": "PATH_INITIALIZED_ON_DEPLOYMENT",
        "offset": 0,
        "slot": "0",
        "type": "t_bool"
      },
      {
        "astId": 1559,
        "contract": "contracts/OmniXMultisender.sol:OmniXMultisender",
        "label": "peers",
        "offset": 0,
        "slot": "1",
        "type": "t_mapping(t_uint32,t_bytes32)"
      },
      {
        "astId": 1563,
        "contract": "contracts/OmniXMultisender.sol:OmniXMultisender",
        "label": "gasLimitLookup",
        "offset": 0,
        "slot": "2",
        "type": "t_mapping(t_uint32,t_uint128)"
      }
    ],
    "types": {
      "t_bool": {
        "encoding": "inplace",
        "label": "bool",
        "numberOfBytes": "1"
      },
      "t_bytes32": {
        "encoding": "inplace",
        "label": "bytes32",
        "numberOfBytes": "32"
      },
      "t_mapping(t_uint32,t_bytes32)": {
        "encoding": "mapping",
        "key": "t_uint32",
        "label": "mapping(uint32 => bytes32)",
        "numberOfBytes": "32",
        "value": "t_bytes32"
      },
      "t_mapping(t_uint32,t_uint128)": {
        "encoding": "mapping",
        "key": "t_uint32",
        "label": "mapping(uint32 => uint128)",
        "numberOfBytes": "32",
        "value": "t_uint128"
      },
      "t_uint128": {
        "encoding": "inplace",
        "label": "uint128",
        "numberOfBytes": "16"
      },
      "t_uint32": {
        "encoding": "inplace",
        "label": "uint32",
        "numberOfBytes": "4"
      }
    }
  }
}