{
  "address": "0x3cF78602bFF8273e3eE15A41ce51F30dAd9785F3",
  "abi": [
    {
      "inputs": [
        {
          "internalType": "address",
          "name": "_endpointAddress",
          "type": "address"
        }
      ],
      "stateMutability": "payable",
      "type": "constructor"
    },
    {
      "inputs": [],
      "name": "AlreadyInitialized",
      "type": "error"
    },
    {
      "inputs": [],
      "name": "ArrayLengthsMustMatch",
      "type": "error"
    },
    {
      "inputs": [],
      "name": "InsufficientNativeValue",
      "type": "error"
    },
    {
      "inputs": [],
      "name": "InvalidInitialization",
      "type": "error"
    },
    {
      "inputs": [],
      "name": "NewOwnerIsZeroAddress",
      "type": "error"
    },
    {
      "inputs": [],
      "name": "NoHandoverRequest",
      "type": "error"
    },
    {
      "inputs": [],
      "name": "NotInitializing",
      "type": "error"
    },
    {
      "inputs": [],
      "name": "Unauthorized",
      "type": "error"
    },
    {
      "anonymous": false,
      "inputs": [
        {
          "indexed": true,
          "internalType": "uint32",
          "name": "remoteEid",
          "type": "uint32"
        },
        {
          "indexed": true,
          "internalType": "uint128",
          "name": "gasLimit",
          "type": "uint128"
        }
      ],
      "name": "GasLimitSet",
      "type": "event"
    },
    {
      "anonymous": false,
      "inputs": [
        {
          "indexed": false,
          "internalType": "uint64",
          "name": "version",
          "type": "uint64"
        }
      ],
      "name": "Initialized",
      "type": "event"
    },
    {
      "anonymous": false,
      "inputs": [
        {
          "indexed": true,
          "internalType": "address",
          "name": "pendingOwner",
          "type": "address"
        }
      ],
      "name": "OwnershipHandoverCanceled",
      "type": "event"
    },
    {
      "anonymous": false,
      "inputs": [
        {
          "indexed": true,
          "internalType": "address",
          "name": "pendingOwner",
          "type": "address"
        }
      ],
      "name": "OwnershipHandoverRequested",
      "type": "event"
    },
    {
      "anonymous": false,
      "inputs": [
        {
          "indexed": true,
          "internalType": "address",
          "name": "oldOwner",
          "type": "address"
        },
        {
          "indexed": true,
          "internalType": "address",
          "name": "newOwner",
          "type": "address"
        }
      ],
      "name": "OwnershipTransferred",
      "type": "event"
    },
    {
      "anonymous": false,
      "inputs": [
        {
          "indexed": true,
          "internalType": "uint32",
          "name": "remoteEid",
          "type": "uint32"
        },
        {
          "indexed": true,
          "internalType": "bytes32",
          "name": "remoteAddress",
          "type": "bytes32"
        }
      ],
      "name": "PeerSet",
      "type": "event"
    },
    {
      "anonymous": false,
      "inputs": [
        {
          "indexed": false,
          "internalType": "address",
          "name": "lib",
          "type": "address"
        },
        {
          "indexed": false,
          "internalType": "uint64",
          "name": "confirmations",
          "type": "uint64"
        },
        {
          "indexed": false,
          "internalType": "uint32[]",
          "name": "eids",
          "type": "uint32[]"
        },
        {
          "indexed": false,
          "internalType": "address",
          "name": "dvn",
          "type": "address"
        }
      ],
      "name": "UlnConfigSet",
      "type": "event"
    },
    {
      "anonymous": false,
      "inputs": [
        {
          "indexed": false,
          "internalType": "address",
          "name": "token",
          "type": "address"
        },
        {
          "indexed": false,
          "internalType": "address",
          "name": "to",
          "type": "address"
        }
      ],
      "name": "Withdrawal",
      "type": "event"
    },
    {
      "stateMutability": "payable",
      "type": "fallback"
    },
    {
      "inputs": [
        {
          "components": [
            {
              "internalType": "uint32",
              "name": "srcEid",
              "type": "uint32"
            },
            {
              "internalType": "bytes32",
              "name": "sender",
              "type": "bytes32"
            },
            {
              "internalType": "uint64",
              "name": "nonce",
              "type": "uint64"
            }
          ],
          "internalType": "struct Origin",
          "name": "origin",
          "type": "tuple"
        }
      ],
      "name": "allowInitializePath",
      "outputs": [
        {
          "internalType": "bool",
          "name": "",
          "type": "bool"
        }
      ],
      "stateMutability": "view",
      "type": "function"
    },
    {
      "inputs": [],
      "name": "cancelOwnershipHandover",
      "outputs": [],
      "stateMutability": "payable",
      "type": "function"
    },
    {
      "inputs": [
        {
          "internalType": "address",
          "name": "pendingOwner",
          "type": "address"
        }
      ],
      "name": "completeOwnershipHandover",
      "outputs": [],
      "stateMutability": "payable",
      "type": "function"
    },
    {
      "inputs": [],
      "name": "convertedAddress",
      "outputs": [
        {
          "internalType": "bytes32",
          "name": "",
          "type": "bytes32"
        }
      ],
      "stateMutability": "view",
      "type": "function"
    },
    {
      "inputs": [
        {
          "internalType": "uint32",
          "name": "dstEid",
          "type": "uint32"
        },
        {
          "internalType": "uint128",
          "name": "amount",
          "type": "uint128"
        },
        {
          "internalType": "address",
          "name": "to",
          "type": "address"
        },
        {
          "internalType": "uint24",
          "name": "customGasLimit",
          "type": "uint24"
        }
      ],
      "name": "createSendDepositOption",
      "outputs": [
        {
          "internalType": "bytes",
          "name": "",
          "type": "bytes"
        }
      ],
      "stateMutability": "view",
      "type": "function"
    },
    {
      "inputs": [],
      "name": "endpoint",
      "outputs": [
        {
          "internalType": "contract ILayerZeroEndpointV2",
          "name": "",
          "type": "address"
        }
      ],
      "stateMutability": "view",
      "type": "function"
    },
    {
      "inputs": [
        {
          "internalType": "uint32[]",
          "name": "_dstEids",
          "type": "uint32[]"
        },
        {
          "internalType": "uint128[]",
          "name": "_amounts",
          "type": "uint128[]"
        },
        {
          "internalType": "address",
          "name": "_to",
          "type": "address"
        }
      ],
      "name": "estimateLZFees",
      "outputs": [
        {
          "internalType": "uint256",
          "name": "",
          "type": "uint256"
        }
      ],
      "stateMutability": "view",
      "type": "function"
    },
    {
      "inputs": [
        {
          "internalType": "uint32",
          "name": "",
          "type": "uint32"
        }
      ],
      "name": "gasLimitLookup",
      "outputs": [
        {
          "internalType": "uint128",
          "name": "",
          "type": "uint128"
        }
      ],
      "stateMutability": "view",
      "type": "function"
    },
    {
      "inputs": [
        {
          "components": [
            {
              "internalType": "uint32",
              "name": "srcEid",
              "type": "uint32"
            },
            {
              "internalType": "bytes32",
              "name": "sender",
              "type": "bytes32"
            },
            {
              "internalType": "uint64",
              "name": "nonce",
              "type": "uint64"
            }
          ],
          "internalType": "struct Origin",
          "name": "",
          "type": "tuple"
        },
        {
          "internalType": "bytes32",
          "name": "",
          "type": "bytes32"
        },
        {
          "internalType": "bytes",
          "name": "",
          "type": "bytes"
        },
        {
          "internalType": "address",
          "name": "",
          "type": "address"
        },
        {
          "internalType": "bytes",
          "name": "",
          "type": "bytes"
        }
      ],
      "name": "lzReceive",
      "outputs": [],
      "stateMutability": "pure",
      "type": "function"
    },
    {
      "inputs": [
        {
          "internalType": "uint32",
          "name": "",
          "type": "uint32"
        },
        {
          "internalType": "bytes32",
          "name": "",
          "type": "bytes32"
        }
      ],
      "name": "nextNonce",
      "outputs": [
        {
          "internalType": "uint64",
          "name": "nonce",
          "type": "uint64"
        }
      ],
      "stateMutability": "pure",
      "type": "function"
    },
    {
      "inputs": [],
      "name": "owner",
      "outputs": [
        {
          "internalType": "address",
          "name": "result",
          "type": "address"
        }
      ],
      "stateMutability": "view",
      "type": "function"
    },
    {
      "inputs": [
        {
          "internalType": "address",
          "name": "pendingOwner",
          "type": "address"
        }
      ],
      "name": "ownershipHandoverExpiresAt",
      "outputs": [
        {
          "internalType": "uint256",
          "name": "result",
          "type": "uint256"
        }
      ],
      "stateMutability": "view",
      "type": "function"
    },
    {
      "inputs": [
        {
          "internalType": "uint32",
          "name": "",
          "type": "uint32"
        }
      ],
      "name": "peers",
      "outputs": [
        {
          "internalType": "bytes32",
          "name": "",
          "type": "bytes32"
        }
      ],
      "stateMutability": "view",
      "type": "function"
    },
    {
      "inputs": [],
      "name": "renounceOwnership",
      "outputs": [],
      "stateMutability": "payable",
      "type": "function"
    },
    {
      "inputs": [],
      "name": "requestOwnershipHandover",
      "outputs": [],
      "stateMutability": "payable",
      "type": "function"
    },
    {
      "inputs": [
        {
          "internalType": "uint32[]",
          "name": "dstEids",
          "type": "uint32[]"
        },
        {
          "internalType": "uint128[]",
          "name": "amounts",
          "type": "uint128[]"
        },
        {
          "internalType": "address",
          "name": "to",
          "type": "address"
        },
        {
          "internalType": "uint24",
          "name": "customGasLimit",
          "type": "uint24"
        }
      ],
      "name": "sendDeposits",
      "outputs": [],
      "stateMutability": "payable",
      "type": "function"
    },
    {
      "inputs": [
        {
          "internalType": "uint32[]",
          "name": "dstEids",
          "type": "uint32[]"
        },
        {
          "internalType": "uint128[]",
          "name": "amounts",
          "type": "uint128[]"
        },
        {
          "internalType": "uint24",
          "name": "customGasLimit",
          "type": "uint24"
        }
      ],
      "name": "sendDeposits_3FF34E",
      "outputs": [],
      "stateMutability": "payable",
      "type": "function"
    },
    {
      "inputs": [
        {
          "internalType": "address",
          "name": "delegate",
          "type": "address"
        }
      ],
      "name": "setDelegate",
      "outputs": [],
      "stateMutability": "nonpayable",
      "type": "function"
    },
    {
      "inputs": [
        {
          "internalType": "uint32[]",
          "name": "remoteEids",
          "type": "uint32[]"
        },
        {
          "internalType": "uint128[]",
          "name": "gasLimits",
          "type": "uint128[]"
        }
      ],
      "name": "setGasLimit",
      "outputs": [],
      "stateMutability": "nonpayable",
      "type": "function"
    },
    {
      "inputs": [
        {
          "internalType": "uint32[]",
          "name": "remoteEids",
          "type": "uint32[]"
        },
        {
          "internalType": "bytes32[]",
          "name": "remoteAddresses",
          "type": "bytes32[]"
        }
      ],
      "name": "setPeers",
      "outputs": [],
      "stateMutability": "nonpayable",
      "type": "function"
    },
    {
      "inputs": [
        {
          "internalType": "address",
          "name": "lib",
          "type": "address"
        },
        {
          "internalType": "uint64",
          "name": "confirmations",
          "type": "uint64"
        },
        {
          "internalType": "uint32[]",
          "name": "eids",
          "type": "uint32[]"
        },
        {
          "internalType": "address",
          "name": "dvn",
          "type": "address"
        }
      ],
      "name": "setUlnConfigs",
      "outputs": [],
      "stateMutability": "nonpayable",
      "type": "function"
    },
    {
      "inputs": [
        {
          "internalType": "address",
          "name": "newOwner",
          "type": "address"
        }
      ],
      "name": "transferOwnership",
      "outputs": [],
      "stateMutability": "payable",
      "type": "function"
    },
    {
      "inputs": [
        {
          "internalType": "address",
          "name": "token",
          "type": "address"
        },
        {
          "internalType": "address",
          "name": "to",
          "type": "address"
        }
      ],
      "name": "withdraw",
      "outputs": [],
      "stateMutability": "nonpayable",
      "type": "function"
    },
    {
      "stateMutability": "payable",
      "type": "receive"
    }
  ],
  "transactionHash": "0x4da517dc07394f5160a320e83ea4e402f31d774faa6d341dea127d13f762ddfd",
  "args": [
    "0x1a44076050125825900e736c501f859c50fE728c"
  ],
  "numDeployments": 2,
  "solcInputHash": "94d875d81bf120b08afaf6d3e8a4b0b9",
  "bytecode": "0x60e0604081905261271060c0526000805460ff191660011790556200230938819003908190833981016040819052620000389162000095565b620000433362000059565b6001600160a01b031660a05230608052620000c7565b6001600160a01b0316638b78c6d8198190558060007f8be0079c531659141344cd1fd0a4f28419497f9722a3daafe3b4186f6b6457e08180a350565b600060208284031215620000a857600080fd5b81516001600160a01b0381168114620000c057600080fd5b9392505050565b60805160a05160c0516121ef6200011a60003960006114ff0152600081816102db01528181610afa01528181610d5d0152818161106301526113ba01526000818161033a01526110dc01526121ef6000f3fe6080604052600436106101815760003560e01c806375e12487116100d6578063ca5eb5e11161007f578063f940e38511610059578063f940e3851461047c578063fee81cf41461049c578063ff7bd03d146104cf57610188565b8063ca5eb5e114610436578063f04e283e14610456578063f2fde38b1461046957610188565b80638da5cb5b116100b05780638da5cb5b146103c25780639970032c146103f6578063bb0b6a531461040957610188565b806375e12487146103285780637d25a05e1461035c5780638acb84f31461039557610188565b80632b94e4991161013857806354d1f13d1161011257806354d1f13d146102c45780635e280f11146102cc578063715018a61461032057610188565b80632b94e4991461022457806333ebcb74146102445780633772df58146102a457610188565b8063128c999111610169578063128c9991146101d857806313137d65146101f8578063256929621461021c57610188565b806036146101925780630430b8df146101a557610188565b3661018857005b610190610504565b005b6101906101a03660046115f9565b6105f6565b3480156101b157600080fd5b506101c56101c036600461169e565b61060b565b6040519081526020015b60405180910390f35b3480156101e457600080fd5b506101906101f3366004611713565b610624565b34801561020457600080fd5b506101906102133660046117d9565b50505050505050565b6101906107b1565b34801561023057600080fd5b5061019061023f36600461188e565b610801565b34801561025057600080fd5b5061028361025f36600461190e565b6002602052600090815260409020546fffffffffffffffffffffffffffffffff1681565b6040516fffffffffffffffffffffffffffffffff90911681526020016101cf565b3480156102b057600080fd5b506101906102bf366004611713565b610bac565b610190610ccd565b3480156102d857600080fd5b507f00000000000000000000000000000000000000000000000000000000000000005b60405173ffffffffffffffffffffffffffffffffffffffff90911681526020016101cf565b610190610d09565b34801561033457600080fd5b506101c57f000000000000000000000000000000000000000000000000000000000000000081565b34801561036857600080fd5b5061037c610377366004611930565b610d1d565b60405167ffffffffffffffff90911681526020016101cf565b3480156103a157600080fd5b506103b56103b036600461197a565b610d26565b6040516101cf9190611a32565b3480156103ce57600080fd5b507fffffffffffffffffffffffffffffffffffffffffffffffffffffffff74873927546102fb565b610190610404366004611a45565b610d3d565b34801561041557600080fd5b506101c561042436600461190e565b60016020526000908152604090205481565b34801561044257600080fd5b50610190610451366004611ad5565b610d53565b610190610464366004611ad5565b610dfb565b610190610477366004611ad5565b610e3b565b34801561048857600080fd5b50610190610497366004611af0565b610e62565b3480156104a857600080fd5b506101c56104b7366004611ad5565b63389a75e1600c908152600091909152602090205490565b3480156104db57600080fd5b506104f46104ea366004611b23565b5060005460ff1690565b60405190151581526020016101cf565b3661050d573636f35b6000805b8036821061051f57506105d5565b81357ffffffffffffffffffffffffffffffffffffffffffffffffffffffffffffffffc83011860001a60018084019350816105c5577fffffffffffffffffffffffffffffffffffffffffffffffffffffffffffffffff85526002830193357ffffffffffffffffffffffffffffffffffffffffffffffffffffffffffffffffd84011860001a607f8082116105b4578282013888395b169490940190930192506105119050565b8185538085019450505050610511565b50600038826000305af490503d6000803e806105f0573d6000fd5b503d6000f35b610604858585853386610ef3565b5050505050565b600061061a8686868686611053565b9695505050505050565b61062c611213565b828114610665576040517f587543d100000000000000000000000000000000000000000000000000000000815260040160405180910390fd5b60005b838110156106045782828281811061068257610682611b3f565b90506020020160208101906106979190611b6e565b600260008787858181106106ad576106ad611b3f565b90506020020160208101906106c2919061190e565b63ffffffff168152602081019190915260400160002080547fffffffffffffffffffffffffffffffff00000000000000000000000000000000166fffffffffffffffffffffffffffffffff9290921691909117905582828281811061072957610729611b3f565b905060200201602081019061073e9190611b6e565b6fffffffffffffffffffffffffffffffff1685858381811061076257610762611b3f565b9050602002016020810190610777919061190e565b63ffffffff167f2de2cdf6b9f29bfb9afedda6cf015c5fcb9832c9c0c3dcc06d501d964cf5653760405160405180910390a3600101610668565b60006202a30067ffffffffffffffff164201905063389a75e1600c5233600052806020600c2055337fdbf36a107da19e49527a7176a1babf963b4b0ff8cde35ee35d6cd8f1f9ac7e1d600080a250565b610809611213565b73ffffffffffffffffffffffffffffffffffffffff85161580610840575073ffffffffffffffffffffffffffffffffffffffff8116155b156108f7576040517f08c379a000000000000000000000000000000000000000000000000000000000815260206004820152604660248201527f4f6d6e69584d756c746973656e6465722e736574556c6e436f6e666967733a2060448201527f456974686572206c6962206f722064766e20706173736564206164647265737360648201527f20697320302e0000000000000000000000000000000000000000000000000000608482015260a40160405180910390fd5b60008267ffffffffffffffff81111561091257610912611b89565b60405190808252806020026020018201604052801561095f57816020015b604080516060808201835260008083526020830152918101919091528152602001906001900390816109305790505b50905060005b83811015610abc576040805160008082526001602080840182815260608501865293949293928501908036833701905050905084816000815181106109ac576109ac611b3f565b602002602001019073ffffffffffffffffffffffffffffffffffffffff16908173ffffffffffffffffffffffffffffffffffffffff16815250506040518060600160405280888886818110610a0357610a03611b3f565b9050602002016020810190610a18919061190e565b63ffffffff168152602001600263ffffffff1681526020016040518060c001604052808b67ffffffffffffffff168152602001600160ff168152602001600060ff168152602001600060ff16815260200184815260200185815250604051602001610a839190611c0a565b604051602081830303815290604052815250848481518110610aa757610aa7611b3f565b60209081029190910101525050600101610965565b506040517f6dbd9f9000000000000000000000000000000000000000000000000000000000815273ffffffffffffffffffffffffffffffffffffffff7f00000000000000000000000000000000000000000000000000000000000000001690636dbd9f9090610b339030908a908690600401611c9c565b600060405180830381600087803b158015610b4d57600080fd5b505af1158015610b61573d6000803e3d6000fd5b505050507f8ce0e970993876be65cfab2afed5b82cb75481532a46bbd39b704bed04375b848686868686604051610b9c959493929190611d6d565b60405180910390a1505050505050565b610bb4611213565b828114610bed576040517f587543d100000000000000000000000000000000000000000000000000000000815260040160405180910390fd5b60005b8381101561060457828282818110610c0a57610c0a611b3f565b9050602002013560016000878785818110610c2757610c27611b3f565b9050602002016020810190610c3c919061190e565b63ffffffff168152602081019190915260400160002055828282818110610c6557610c65611b3f565b90506020020135858583818110610c7e57610c7e611b3f565b9050602002016020810190610c93919061190e565b63ffffffff167f238399d427b947898edb290f5ff0f9109849b1c3ba196a42e35f00c50a54b98b60405160405180910390a3600101610bf0565b63389a75e1600c523360005260006020600c2055337ffa7b8eab7da67f412cc9575ed43464468f9bfbae89d1675917346ca6d8fe3c92600080a2565b610d11611213565b610d1b6000611249565b565b60005b92915050565b6060610d34858585856112af565b95945050505050565b610d4b868686868686610ef3565b505050505050565b610d5b611213565b7f00000000000000000000000000000000000000000000000000000000000000006040517fca5eb5e100000000000000000000000000000000000000000000000000000000815273ffffffffffffffffffffffffffffffffffffffff8381166004830152919091169063ca5eb5e190602401600060405180830381600087803b158015610de757600080fd5b505af1158015610604573d6000803e3d6000fd5b610e03611213565b63389a75e1600c52806000526020600c208054421115610e2b57636f5e88186000526004601cfd5b60009055610e3881611249565b50565b610e43611213565b8060601b610e5957637448fbae6000526004601cfd5b610e3881611249565b610e6a611213565b73ffffffffffffffffffffffffffffffffffffffff8216610e9357610e8e81611313565b610e9f565b610e9d828261132f565b505b6040805173ffffffffffffffffffffffffffffffffffffffff8085168252831660208201527ffee4bd730c5342548069b84e6a6b38c19507a6fe4bbbc4ab6f648b1ed2ad5fc8910160405180910390a15050565b60004781610f013447611e28565b905060005b88811015610fc057610fa78a8a83818110610f2357610f23611b3f565b9050602002016020810190610f38919061190e565b60405180602001604052806000815250610fa08d8d86818110610f5d57610f5d611b3f565b9050602002016020810190610f72919061190e565b8c8c87818110610f8457610f84611b3f565b9050602002016020810190610f999190611b6e565b8b8b6112af565b47306113b0565b6040015151610fb69085611e3b565b9350600101610f06565b506000610fcd4784611e28565b9050838114610fde57610fde611e4e565b34811115611018576040517f35898e6e00000000000000000000000000000000000000000000000000000000815260040160405180910390fd5b60006110248234611e28565b9050801561103657611036338261148e565b8247101561104657611046611e4e565b5050505050505050505050565b60008060005b86811015611208577f000000000000000000000000000000000000000000000000000000000000000073ffffffffffffffffffffffffffffffffffffffff1663ddc28c586040518060a001604052808b8b868181106110ba576110ba611b3f565b90506020020160208101906110cf919061190e565b63ffffffff1681526020017f0000000000000000000000000000000000000000000000000000000000000000815260200160405180602001604052806000815250815260200161116e8c8c8781811061112a5761112a611b3f565b905060200201602081019061113f919061190e565b8b8b8881811061115157611151611b3f565b90506020020160208101906111669190611b6e565b8a60006112af565b815260006020909101526040517fffffffff0000000000000000000000000000000000000000000000000000000060e084901b1681526111b391903090600401611e7d565b6040805180830381865afa1580156111cf573d6000803e3d6000fd5b505050506040513d601f19601f820116820180604052508101906111f39190611f97565b516111fe9083611e3b565b9150600101611059565b509695505050505050565b7fffffffffffffffffffffffffffffffffffffffffffffffffffffffff74873927543314610d1b576382b429006000526004601cfd5b7fffffffffffffffffffffffffffffffffffffffffffffffffffffffff74873927805473ffffffffffffffffffffffffffffffffffffffff9092169182907f8be0079c531659141344cd1fd0a4f28419497f9722a3daafe3b4186f6b6457e0600080a355565b606060036001601160016112c389876114ae565b6040516112fa9594939291906001906031906002908d9073ffffffffffffffffffffffffffffffffffffffff8e1690602001611fb3565b6040516020818303038152906040529050949350505050565b60003860003847855af1610e385763b12d13eb6000526004601cfd5b60006370a0823160005230602052602060346024601c865afa601f3d111661135f576390b8ec186000526004601cfd5b8160145260345190506fa9059cbb00000000000000000000000060005260206000604460106000875af13d1560016000511417166113a5576390b8ec186000526004601cfd5b600060345292915050565b6113b861154d565b7f000000000000000000000000000000000000000000000000000000000000000073ffffffffffffffffffffffffffffffffffffffff16632637a450846040518060a001604052808a63ffffffff1681526020016114158b61152b565b815260200189815260200188815260200160001515815250856040518463ffffffff1660e01b815260040161144b929190611e7d565b60806040518083038185885af1158015611469573d6000803e3d6000fd5b50505050506040513d601f19601f8201168201806040525081019061061a919061212a565b60003860003884865af16114aa5763b12d13eb6000526004601cfd5b5050565b600062ffffff8216156114c7575062ffffff8116610d20565b63ffffffff83166000908152600260205260408120546fffffffffffffffffffffffffffffffff169081900361152457505062ffffff7f000000000000000000000000000000000000000000000000000000000000000016610d20565b9050610d20565b63ffffffff8116600090815260016020526040812054808203610d2057600080fd5b604051806060016040528060008019168152602001600067ffffffffffffffff168152602001611590604051806040016040528060008152602001600081525090565b905290565b60008083601f8401126115a757600080fd5b50813567ffffffffffffffff8111156115bf57600080fd5b6020830191508360208260051b85010111156115da57600080fd5b9250929050565b803562ffffff811681146115f457600080fd5b919050565b60008060008060006060868803121561161157600080fd5b853567ffffffffffffffff8082111561162957600080fd5b61163589838a01611595565b9097509550602088013591508082111561164e57600080fd5b5061165b88828901611595565b909450925061166e9050604087016115e1565b90509295509295909350565b803573ffffffffffffffffffffffffffffffffffffffff811681146115f457600080fd5b6000806000806000606086880312156116b657600080fd5b853567ffffffffffffffff808211156116ce57600080fd5b6116da89838a01611595565b909750955060208801359150808211156116f357600080fd5b5061170088828901611595565b909450925061166e90506040870161167a565b6000806000806040858703121561172957600080fd5b843567ffffffffffffffff8082111561174157600080fd5b61174d88838901611595565b9096509450602087013591508082111561176657600080fd5b5061177387828801611595565b95989497509550505050565b60006060828403121561179157600080fd5b50919050565b60008083601f8401126117a957600080fd5b50813567ffffffffffffffff8111156117c157600080fd5b6020830191508360208285010111156115da57600080fd5b600080600080600080600060e0888a0312156117f457600080fd5b6117fe898961177f565b965060608801359550608088013567ffffffffffffffff8082111561182257600080fd5b61182e8b838c01611797565b909750955085915061184260a08b0161167a565b945060c08a013591508082111561185857600080fd5b506118658a828b01611797565b989b979a50959850939692959293505050565b67ffffffffffffffff81168114610e3857600080fd5b6000806000806000608086880312156118a657600080fd5b6118af8661167a565b945060208601356118bf81611878565b9350604086013567ffffffffffffffff8111156118db57600080fd5b6118e788828901611595565b909450925061166e90506060870161167a565b803563ffffffff811681146115f457600080fd5b60006020828403121561192057600080fd5b611929826118fa565b9392505050565b6000806040838503121561194357600080fd5b61194c836118fa565b946020939093013593505050565b80356fffffffffffffffffffffffffffffffff811681146115f457600080fd5b6000806000806080858703121561199057600080fd5b611999856118fa565b93506119a76020860161195a565b92506119b56040860161167a565b91506119c3606086016115e1565b905092959194509250565b6000815180845260005b818110156119f4576020818501810151868301820152016119d8565b5060006020828601015260207fffffffffffffffffffffffffffffffffffffffffffffffffffffffffffffffe0601f83011685010191505092915050565b60208152600061192960208301846119ce565b60008060008060008060808789031215611a5e57600080fd5b863567ffffffffffffffff80821115611a7657600080fd5b611a828a838b01611595565b90985096506020890135915080821115611a9b57600080fd5b50611aa889828a01611595565b9095509350611abb90506040880161167a565b9150611ac9606088016115e1565b90509295509295509295565b600060208284031215611ae757600080fd5b6119298261167a565b60008060408385031215611b0357600080fd5b611b0c8361167a565b9150611b1a6020840161167a565b90509250929050565b600060608284031215611b3557600080fd5b611929838361177f565b7f4e487b7100000000000000000000000000000000000000000000000000000000600052603260045260246000fd5b600060208284031215611b8057600080fd5b6119298261195a565b7f4e487b7100000000000000000000000000000000000000000000000000000000600052604160045260246000fd5b60008151808452602080850194506020840160005b83811015611bff57815173ffffffffffffffffffffffffffffffffffffffff1687529582019590820190600101611bcd565b509495945050505050565b6020815267ffffffffffffffff825116602082015260ff602083015116604082015260ff604083015116606082015260ff60608301511660808201526000608083015160c060a0840152611c6160e0840182611bb8565b905060a08401517fffffffffffffffffffffffffffffffffffffffffffffffffffffffffffffffe08483030160c0850152610d348282611bb8565b6000606080830173ffffffffffffffffffffffffffffffffffffffff8088168552602081881681870152604091506060604087015282875180855260808801915060808160051b890101945082890160005b82811015611d5c578987037fffffffffffffffffffffffffffffffffffffffffffffffffffffffffffffff800184528151805163ffffffff9081168952868201511686890152860151868801899052611d49898901826119ce565b9750509284019290840190600101611cee565b50949b9a5050505050505050505050565b60006080820173ffffffffffffffffffffffffffffffffffffffff8089168452602067ffffffffffffffff89166020860152608060408601528287845260a08601905088935060005b88811015611ddf5763ffffffff611dcc866118fa565b1682529382019390820190600101611db6565b508094505050808516606085015250509695505050505050565b7f4e487b7100000000000000000000000000000000000000000000000000000000600052601160045260246000fd5b81810381811115610d2057610d20611df9565b80820180821115610d2057610d20611df9565b7f4e487b7100000000000000000000000000000000000000000000000000000000600052600160045260246000fd5b6040815263ffffffff8351166040820152602083015160608201526000604084015160a06080840152611eb360e08401826119ce565b905060608501517fffffffffffffffffffffffffffffffffffffffffffffffffffffffffffffffc08483030160a0850152611eee82826119ce565b60809690960151151560c085015250505073ffffffffffffffffffffffffffffffffffffffff9190911660209091015290565b600060408284031215611f3357600080fd5b6040516040810181811067ffffffffffffffff82111715611f7d577f4e487b7100000000000000000000000000000000000000000000000000000000600052604160045260246000fd5b604052825181526020928301519281019290925250919050565b600060408284031215611fa957600080fd5b6119298383611f21565b60007fffff000000000000000000000000000000000000000000000000000000000000808d60f01b1683527fff00000000000000000000000000000000000000000000000000000000000000808d60f81b166002850152818c60f01b166003850152808b60f81b16600585015250507fffffffffffffffffffffffffffffffff000000000000000000000000000000008860801b16600683015261207e601683018860f81b7fff00000000000000000000000000000000000000000000000000000000000000169052565b6120af601783018760f01b7fffff000000000000000000000000000000000000000000000000000000000000169052565b6120e0601983018660f81b7fff00000000000000000000000000000000000000000000000000000000000000169052565b612111601a83018560801b7fffffffffffffffffffffffffffffffff00000000000000000000000000000000169052565b50602a810191909152604a019998505050505050505050565b60006080828403121561213c57600080fd5b6040516060810181811067ffffffffffffffff82111715612186577f4e487b7100000000000000000000000000000000000000000000000000000000600052604160045260246000fd5b60405282518152602083015161219b81611878565b60208201526121ad8460408501611f21565b6040820152939250505056fea2646970667358221220300c1e1366fdf4347e66910d32f4d3aa12a8aa4c69297e56db870e798e39fe2e64736f6c63430008160033",
  "devdoc": {
    "author": "Omni X",
    "custom:donation": "This contract is completely free to use and fork, we do not take any extra fees. If you would like to donate you can send ETH or ERC-20s directly here, thank you ",
    "details": "This multisender implementation is close to perfect for plain solidity, but can be even further improved upon with inline assembly, yul, etc.",
    "errors": {
      "AlreadyInitialized()": [
        {
          "details": "Cannot double-initialize."
        }
      ],
      "InvalidInitialization()": [
        {
          "details": "The contract is already initialized."
        }
      ],
      "NewOwnerIsZeroAddress()": [
        {
          "details": "The `newOwner` cannot be the zero address."
        }
      ],
      "NoHandoverRequest()": [
        {
          "details": "The `pendingOwner` does not have a valid handover request."
        }
      ],
      "NotInitializing()": [
        {
          "details": "The contract is not initializing."
        }
      ],
      "Unauthorized()": [
        {
          "details": "The caller is not authorized to call the function."
        }
      ]
    },
    "events": {
      "Initialized(uint64)": {
        "details": "Triggered when the contract has been initialized."
      },
      "OwnershipHandoverCanceled(address)": {
        "details": "The ownership handover to `pendingOwner` has been canceled."
      },
      "OwnershipHandoverRequested(address)": {
        "details": "An ownership handover to `pendingOwner` has been requested."
      },
      "OwnershipTransferred(address,address)": {
        "details": "The ownership is transferred from `oldOwner` to `newOwner`. This event is intentionally kept the same as OpenZeppelin's Ownable to be compatible with indexers and [EIP-173](https://eips.ethereum.org/EIPS/eip-173), despite it not being as lightweight as a single argument event."
      }
    },
    "kind": "dev",
    "methods": {
      "cancelOwnershipHandover()": {
        "details": "Cancels the two-step ownership handover to the caller, if any."
      },
      "completeOwnershipHandover(address)": {
        "details": "Allows the owner to complete the two-step ownership handover to `pendingOwner`. Reverts if there is no existing ownership handover requested by `pendingOwner`."
      },
      "owner()": {
        "details": "Returns the owner of the contract."
      },
      "ownershipHandoverExpiresAt(address)": {
        "details": "Returns the expiry timestamp for the two-step ownership handover to `pendingOwner`."
      },
      "renounceOwnership()": {
        "details": "Allows the owner to renounce their ownership."
      },
      "requestOwnershipHandover()": {
        "details": "Request a two-step ownership handover to the caller. The request will automatically expire in 48 hours (172800 seconds) by default."
      },
      "sendDeposits(uint32[],uint128[],address,uint24)": {
        "details": "This function's name and place in the call stack has not been optimized as most of the time users will send the gas to themselves"
      },
      "sendDeposits_3FF34E(uint32[],uint128[],uint24)": {
        "details": "The name of the function has been selected to optimize for its place at the top of the dispatch order, as well as using calldata instead of memory for further performance."
      },
      "setPeers(uint32[],bytes32[])": {
        "details": "Set peers for your contract. Deploy at once on all chains from a clean wallet to have the same address, alternatively you can try various CREATE2 and CREATE3 tools."
      },
      "setUlnConfigs(address,uint64,uint32[],address)": {
        "details": "lib version, number of confirmations and DVN MUST match EXACTLY between two chains for the contract to work."
      },
      "transferOwnership(address)": {
        "details": "Allows the owner to transfer the ownership to `newOwner`."
      }
    },
    "stateVariables": {
      "defaultGasLimit": {
        "details": "This gas limit value will be used unless a function specifies the value explicitly or it has been set in gasLimitLookup by the owner"
      }
    },
    "title": "Omni X Multisender",
    "version": 1
  },
  "userdoc": {
    "errors": {
      "InsufficientNativeValue()": [
        {
          "notice": "----------------------------------------------------------------------- Custom Errors -----------------------------------------------------------------------"
        }
      ]
    },
    "events": {
      "PeerSet(uint32,bytes32)": {
        "notice": "----------------------------------------------------------------------- Events -----------------------------------------------------------------------"
      }
    },
    "kind": "user",
    "methods": {
      "convertedAddress()": {
        "notice": "----------------------------------------------------------------------- Constants -----------------------------------------------------------------------"
      },
      "createSendDepositOption(uint32,uint128,address,uint24)": {
        "notice": "----------------------------------------------------------------------- Read-Only Helpers -----------------------------------------------------------------------"
      },
      "estimateLZFees(uint32[],uint128[],address)": {
        "notice": "Use this function to estimate fees for your cross-chain send. It is reccomended to pass a slightly higher value than returned from here for better UX, any excess will be refunded back to the user."
      },
      "nextNonce(uint32,bytes32)": {
        "notice": "----------------------------------------------------------------------- Layer Zero Callbacks -----------------------------------------------------------------------"
      },
      "peers(uint32)": {
        "notice": "----------------------------------------------------------------------- Mutables -----------------------------------------------------------------------"
      },
      "sendDeposits(uint32[],uint128[],address,uint24)": {
        "notice": "Same sendDeposits function as above just to a different address than your own."
      },
      "sendDeposits_3FF34E(uint32[],uint128[],uint24)": {
        "notice": "Use this function to send funds on any number of supported chains. Use 0 for customGasLimit if you do not want to override the default one."
      },
      "setGasLimit(uint32[],uint128[])": {
        "notice": "Set a custom gas limit for a number of paths."
      },
      "withdraw(address,address)": {
        "notice": "----------------------------------------------------------------------- Only-Owner Logic -----------------------------------------------------------------------"
      }
    },
    "notice": "Omni X Mutlsender allows you to send gas aka refuel your account on a number of EVM chains at once with no fees and close to perfect gas optimizations",
    "version": 1
  },
  "storageLayout": {
    "storage": [
      {
        "astId": 1560,
        "contract": "contracts/OmniXMultisender.sol:OmniXMultisender",
        "label": "PATH_INITIALIZED_ON_DEPLOYMENT",
        "offset": 0,
        "slot": "0",
        "type": "t_bool"
      },
      {
        "astId": 1565,
        "contract": "contracts/OmniXMultisender.sol:OmniXMultisender",
        "label": "peers",
        "offset": 0,
        "slot": "1",
        "type": "t_mapping(t_uint32,t_bytes32)"
      },
      {
        "astId": 1569,
        "contract": "contracts/OmniXMultisender.sol:OmniXMultisender",
        "label": "gasLimitLookup",
        "offset": 0,
        "slot": "2",
        "type": "t_mapping(t_uint32,t_uint128)"
      }
    ],
    "types": {
      "t_bool": {
        "encoding": "inplace",
        "label": "bool",
        "numberOfBytes": "1"
      },
      "t_bytes32": {
        "encoding": "inplace",
        "label": "bytes32",
        "numberOfBytes": "32"
      },
      "t_mapping(t_uint32,t_bytes32)": {
        "encoding": "mapping",
        "key": "t_uint32",
        "label": "mapping(uint32 => bytes32)",
        "numberOfBytes": "32",
        "value": "t_bytes32"
      },
      "t_mapping(t_uint32,t_uint128)": {
        "encoding": "mapping",
        "key": "t_uint32",
        "label": "mapping(uint32 => uint128)",
        "numberOfBytes": "32",
        "value": "t_uint128"
      },
      "t_uint128": {
        "encoding": "inplace",
        "label": "uint128",
        "numberOfBytes": "16"
      },
      "t_uint32": {
        "encoding": "inplace",
        "label": "uint32",
        "numberOfBytes": "4"
      }
    }
  }
}