{
  "address": "0xd480364206B187c2A2B00b13Bf3fD2bea6D52f65",
  "abi": [
    {
      "inputs": [
        {
          "internalType": "address",
          "name": "_owner",
          "type": "address"
        },
        {
          "internalType": "address",
          "name": "_implementation",
          "type": "address"
        }
      ],
      "stateMutability": "nonpayable",
      "type": "constructor"
    },
    {
      "inputs": [],
      "name": "AlreadyInitialized",
      "type": "error"
    },
    {
      "inputs": [],
      "name": "NewOwnerIsZeroAddress",
      "type": "error"
    },
    {
      "inputs": [],
      "name": "NoHandoverRequest",
      "type": "error"
    },
    {
      "inputs": [],
      "name": "Unauthorized",
      "type": "error"
    },
    {
      "anonymous": false,
      "inputs": [
        {
          "indexed": true,
          "internalType": "address",
          "name": "pendingOwner",
          "type": "address"
        }
      ],
      "name": "OwnershipHandoverCanceled",
      "type": "event"
    },
    {
      "anonymous": false,
      "inputs": [
        {
          "indexed": true,
          "internalType": "address",
          "name": "pendingOwner",
          "type": "address"
        }
      ],
      "name": "OwnershipHandoverRequested",
      "type": "event"
    },
    {
      "anonymous": false,
      "inputs": [
        {
          "indexed": true,
          "internalType": "address",
          "name": "oldOwner",
          "type": "address"
        },
        {
          "indexed": true,
          "internalType": "address",
          "name": "newOwner",
          "type": "address"
        }
      ],
      "name": "OwnershipTransferred",
      "type": "event"
    },
    {
      "stateMutability": "nonpayable",
      "type": "fallback"
    },
    {
      "inputs": [],
      "name": "cancelOwnershipHandover",
      "outputs": [],
      "stateMutability": "payable",
      "type": "function"
    },
    {
      "inputs": [
        {
          "internalType": "address",
          "name": "pendingOwner",
          "type": "address"
        }
      ],
      "name": "completeOwnershipHandover",
      "outputs": [],
      "stateMutability": "payable",
      "type": "function"
    },
    {
      "inputs": [
        {
          "internalType": "address",
          "name": "endpoint",
          "type": "address"
        },
        {
          "internalType": "address",
          "name": "omniNft",
          "type": "address"
        },
        {
          "internalType": "uint24",
          "name": "defaultGasLimit",
          "type": "uint24"
        }
      ],
      "name": "deploy",
      "outputs": [
        {
          "internalType": "address",
          "name": "instance",
          "type": "address"
        }
      ],
      "stateMutability": "nonpayable",
      "type": "function"
    },
    {
      "inputs": [],
      "name": "owner",
      "outputs": [
        {
          "internalType": "address",
          "name": "result",
          "type": "address"
        }
      ],
      "stateMutability": "view",
      "type": "function"
    },
    {
      "inputs": [
        {
          "internalType": "address",
          "name": "pendingOwner",
          "type": "address"
        }
      ],
      "name": "ownershipHandoverExpiresAt",
      "outputs": [
        {
          "internalType": "uint256",
          "name": "result",
          "type": "uint256"
        }
      ],
      "stateMutability": "view",
      "type": "function"
    },
    {
      "inputs": [],
      "name": "renounceOwnership",
      "outputs": [],
      "stateMutability": "payable",
      "type": "function"
    },
    {
      "inputs": [],
      "name": "requestOwnershipHandover",
      "outputs": [],
      "stateMutability": "payable",
      "type": "function"
    },
    {
      "inputs": [
        {
          "internalType": "address",
          "name": "instance",
          "type": "address"
        },
        {
          "internalType": "address",
          "name": "delegate",
          "type": "address"
        }
      ],
      "name": "setDelegate",
      "outputs": [],
      "stateMutability": "nonpayable",
      "type": "function"
    },
    {
      "inputs": [
        {
          "internalType": "address",
          "name": "instance",
          "type": "address"
        },
        {
          "internalType": "uint32[]",
          "name": "remoteEids",
          "type": "uint32[]"
        },
        {
          "internalType": "uint128[]",
          "name": "gasLimits",
          "type": "uint128[]"
        }
      ],
      "name": "setGasLimit",
      "outputs": [],
      "stateMutability": "nonpayable",
      "type": "function"
    },
    {
      "inputs": [
        {
          "internalType": "address",
          "name": "instance",
          "type": "address"
        },
        {
          "internalType": "uint32[]",
          "name": "remoteEids",
          "type": "uint32[]"
        },
        {
          "internalType": "bytes32[]",
          "name": "remoteAddresses",
          "type": "bytes32[]"
        }
      ],
      "name": "setPeers",
      "outputs": [],
      "stateMutability": "nonpayable",
      "type": "function"
    },
    {
      "inputs": [
        {
          "internalType": "address",
          "name": "instance",
          "type": "address"
        },
        {
          "internalType": "address",
          "name": "lib",
          "type": "address"
        },
        {
          "internalType": "uint64",
          "name": "confirmations",
          "type": "uint64"
        },
        {
          "internalType": "uint32[]",
          "name": "eids",
          "type": "uint32[]"
        },
        {
          "internalType": "address",
          "name": "dvn",
          "type": "address"
        }
      ],
      "name": "setUlnConfigs",
      "outputs": [],
      "stateMutability": "nonpayable",
      "type": "function"
    },
    {
      "inputs": [
        {
          "internalType": "address",
          "name": "newOwner",
          "type": "address"
        }
      ],
      "name": "transferOwnership",
      "outputs": [],
      "stateMutability": "payable",
      "type": "function"
    },
    {
      "inputs": [
        {
          "internalType": "address",
          "name": "token",
          "type": "address"
        },
        {
          "internalType": "address",
          "name": "to",
          "type": "address"
        }
      ],
      "name": "withdraw",
      "outputs": [],
      "stateMutability": "nonpayable",
      "type": "function"
    },
    {
      "stateMutability": "payable",
      "type": "receive"
    }
  ],
  "transactionHash": "0x4c00d8389972f685b74b18e139d0eaf5087c9df71d7f49b29a66eed761805203",
  "args": [
    "0xaD8A06E659011D032b1B3b728a44a6549F3fda60",
    "0xc1Eb5196B7f318706c1880680868cc932CD5ed5e"
  ],
  "numDeployments": 1,
  "solcInputHash": "cec40c1ed0e8903a7896c6fd04a28b09",
  "bytecode": "0x60a060405234801561001057600080fd5b50604051610d1a380380610d1a83398101604081905261002f916100a2565b6100388261004a565b6001600160a01b0316608052506100d5565b6001600160a01b0316638b78c6d8198190558060007f8be0079c531659141344cd1fd0a4f28419497f9722a3daafe3b4186f6b6457e08180a350565b80516001600160a01b038116811461009d57600080fd5b919050565b600080604083850312156100b557600080fd5b6100be83610086565b91506100cc60208401610086565b90509250929050565b608051610c2a6100f060003960006104ae0152610c2a6000f3fe6080604052600436106100c65760003560e01c80638da5cb5b1161007f578063f04e283e11610059578063f04e283e146101d2578063f2fde38b146101e5578063f940e385146101f8578063fee81cf414610218576100cd565b80638da5cb5b14610179578063a5b341b314610192578063afc66222146101b2576100cd565b806325692962146100e457806345fca874146100ec57806354d1f13d1461010c5780635c8738491461011457806364f2c86114610134578063715018a614610171576100cd565b366100cd57005b3480156100d957600080fd5b506100e2610259565b005b6100e26102f1565b3480156100f857600080fd5b506100e26101073660046108f1565b610341565b6100e26103b7565b34801561012057600080fd5b506100e261012f366004610981565b6103f3565b34801561014057600080fd5b5061015461014f3660046109b4565b61045a565b6040516001600160a01b0390911681526020015b60405180910390f35b6100e2610541565b34801561018557600080fd5b50638b78c6d81954610154565b34801561019e57600080fd5b506100e26101ad366004610a03565b610555565b3480156101be57600080fd5b506100e26101cd366004610a03565b6105c8565b6100e26101e0366004610a84565b610602565b6100e26101f3366004610a84565b610642565b34801561020457600080fd5b506100e2610213366004610981565b610669565b34801561022457600080fd5b5061024b610233366004610a84565b63389a75e1600c908152600091909152602090205490565b604051908152602001610168565b36610262573636f35b6000805b8036821061027457506102d0565b600180830192600319810190351860001a90816102c057600019855260028301933560021984011860001a607f8082116102af578282013888395b169490940190930192506102669050565b8185538085019450505050610266565b50600038826000305af490503d6000803e806102eb573d6000fd5b503d6000f35b60006202a30067ffffffffffffffff164201905063389a75e1600c5233600052806020600c2055337fdbf36a107da19e49527a7176a1babf963b4b0ff8cde35ee35d6cd8f1f9ac7e1d600080a250565b61034961069b565b604051632b94e49960e01b81526001600160a01b03871690632b94e4999061037d9088908890889088908890600401610aeb565b600060405180830381600087803b15801561039757600080fd5b505af11580156103ab573d6000803e3d6000fd5b50505050505050505050565b63389a75e1600c523360005260006020600c2055337ffa7b8eab7da67f412cc9575ed43464468f9bfbae89d1675917346ca6d8fe3c92600080a2565b6103fb61069b565b60405163ca5eb5e160e01b81526001600160a01b03828116600483015283169063ca5eb5e190602401600060405180830381600087803b15801561043e57600080fd5b505af1158015610452573d6000803e3d6000fd5b505050505050565b600061046461069b565b6040516bffffffffffffffffffffffff19606086811b8216602084015230811b8216603484015285901b1660488201526001600160e81b031960e884901b16605c8201526104e5907f000000000000000000000000000000000000000000000000000000000000000090605f016040516020818303038152906040526106b6565b9050806001600160a01b0316638129fc1c6040518163ffffffff1660e01b8152600401600060405180830381600087803b15801561052257600080fd5b505af1158015610536573d6000803e3d6000fd5b505050509392505050565b61054961069b565b61055360006106cb565b565b61055d61069b565b6040516306ee5beb60e31b81526001600160a01b03861690633772df589061058f908790879087908790600401610b33565b600060405180830381600087803b1580156105a957600080fd5b505af11580156105bd573d6000803e3d6000fd5b505050505050505050565b6105d061069b565b60405163128c999160e01b81526001600160a01b0386169063128c99919061058f908790879087908790600401610b7f565b61060a61069b565b63389a75e1600c52806000526020600c20805442111561063257636f5e88186000526004601cfd5b6000905561063f816106cb565b50565b61064a61069b565b8060601b61066057637448fbae6000526004601cfd5b61063f816106cb565b61067161069b565b6001600160a01b03821661068c5761068881610709565b5050565b6106968282610725565b505050565b638b78c6d819543314610553576382b429006000526004601cfd5b60006106c46000848461079d565b9392505050565b638b78c6d81980546001600160a01b039092169182907f8be0079c531659141344cd1fd0a4f28419497f9722a3daafe3b4186f6b6457e0600080a355565b60003860003847855af161063f5763b12d13eb6000526004601cfd5b60006370a0823160005230602052602060346024601c865afa601f3d1116610755576390b8ec186000526004601cfd5b81601452603451905063a9059cbb60601b60005260206000604460106000875af13d156001600051141716610792576390b8ec186000526004601cfd5b600060345292915050565b600060608203516040830351602084035184518060208701018051600283016c5af43d3d93803e606057fd5bf3895289600d8a035278593da1005b363d3d373d3d3d3d610000806062363936013d738160481b1760218a03527f9e4ac34f21c619cefc926c8bd93b54bf5a39c7ab2127a895af1cc0691d7e3dff603a8a035272fd6100003d81600a3d39f336602c57343d527f6062820160781b1761ff9e82106059018a03528060f01b8352606c8101604c8a038cf0975050866108695763301164256000526004601cfd5b90528552601f19850152603f19840152605f199092019190915292915050565b80356001600160a01b03811681146108a057600080fd5b919050565b60008083601f8401126108b757600080fd5b50813567ffffffffffffffff8111156108cf57600080fd5b6020830191508360208260051b85010111156108ea57600080fd5b9250929050565b60008060008060008060a0878903121561090a57600080fd5b61091387610889565b955061092160208801610889565b9450604087013567ffffffffffffffff808216821461093f57600080fd5b9094506060880135908082111561095557600080fd5b5061096289828a016108a5565b9094509250610975905060808801610889565b90509295509295509295565b6000806040838503121561099457600080fd5b61099d83610889565b91506109ab60208401610889565b90509250929050565b6000806000606084860312156109c957600080fd5b6109d284610889565b92506109e060208501610889565b9150604084013562ffffff811681146109f857600080fd5b809150509250925092565b600080600080600060608688031215610a1b57600080fd5b610a2486610889565b9450602086013567ffffffffffffffff80821115610a4157600080fd5b610a4d89838a016108a5565b90965094506040880135915080821115610a6657600080fd5b50610a73888289016108a5565b969995985093965092949392505050565b600060208284031215610a9657600080fd5b6106c482610889565b818352600060208085019450826000805b86811015610adf57823563ffffffff8116808214610acc578384fd5b8952509683019691830191600101610ab0565b50959695505050505050565b600060018060a01b03808816835267ffffffffffffffff8716602084015260806040840152610b1e608084018688610a9f565b91508084166060840152509695505050505050565b604081526000610b47604083018688610a9f565b82810360208401528381526001600160fb1b03841115610b6657600080fd5b8360051b80866020840137016020019695505050505050565b604081526000610b93604083018688610a9f565b828103602084810191909152848252859181016000805b87811015610be55784356fffffffffffffffffffffffffffffffff8116808214610bd2578384fd5b8452509383019391830191600101610baa565b5090999850505050505050505056fea26469706673582212206795ba44754eb1f57eb896f0c03af2e7a465ce54d5e1c10ea19149ae16b8f80464736f6c63430008160033",
  "devdoc": {
    "errors": {
      "AlreadyInitialized()": [
        {
          "details": "Cannot double-initialize."
        }
      ],
      "NewOwnerIsZeroAddress()": [
        {
          "details": "The `newOwner` cannot be the zero address."
        }
      ],
      "NoHandoverRequest()": [
        {
          "details": "The `pendingOwner` does not have a valid handover request."
        }
      ],
      "Unauthorized()": [
        {
          "details": "The caller is not authorized to call the function."
        }
      ]
    },
    "events": {
      "OwnershipHandoverCanceled(address)": {
        "details": "The ownership handover to `pendingOwner` has been canceled."
      },
      "OwnershipHandoverRequested(address)": {
        "details": "An ownership handover to `pendingOwner` has been requested."
      },
      "OwnershipTransferred(address,address)": {
        "details": "The ownership is transferred from `oldOwner` to `newOwner`. This event is intentionally kept the same as OpenZeppelin's Ownable to be compatible with indexers and [EIP-173](https://eips.ethereum.org/EIPS/eip-173), despite it not being as lightweight as a single argument event."
      }
    },
    "kind": "dev",
    "methods": {
      "cancelOwnershipHandover()": {
        "details": "Cancels the two-step ownership handover to the caller, if any."
      },
      "completeOwnershipHandover(address)": {
        "details": "Allows the owner to complete the two-step ownership handover to `pendingOwner`. Reverts if there is no existing ownership handover requested by `pendingOwner`."
      },
      "owner()": {
        "details": "Returns the owner of the contract."
      },
      "ownershipHandoverExpiresAt(address)": {
        "details": "Returns the expiry timestamp for the two-step ownership handover to `pendingOwner`."
      },
      "renounceOwnership()": {
        "details": "Allows the owner to renounce their ownership."
      },
      "requestOwnershipHandover()": {
        "details": "Request a two-step ownership handover to the caller. The request will automatically expire in 48 hours (172800 seconds) by default."
      },
      "transferOwnership(address)": {
        "details": "Allows the owner to transfer the ownership to `newOwner`."
      }
    },
    "version": 1
  },
  "userdoc": {
    "kind": "user",
    "methods": {
      "constructor": {
        "notice": "----------------------------------------------------------------------- Constructor -----------------------------------------------------------------------"
      },
      "deploy(address,address,uint24)": {
        "notice": "----------------------------------------------------------------------- Owner Actions -----------------------------------------------------------------------"
      }
    },
    "version": 1
  },
  "storageLayout": {
    "storage": [],
    "types": null
  }
}