{
  "address": "0xE9e3efCF57afc3E497c941bab39386DebBe26C21",
  "abi": [
    {
      "inputs": [
        {
          "internalType": "address",
          "name": "_endpoint",
          "type": "address"
        },
        {
          "internalType": "address",
          "name": "_delegate",
          "type": "address"
        }
      ],
      "stateMutability": "nonpayable",
      "type": "constructor"
    },
    {
      "inputs": [
        {
          "internalType": "address",
          "name": "target",
          "type": "address"
        }
      ],
      "name": "AddressEmptyCode",
      "type": "error"
    },
    {
      "inputs": [
        {
          "internalType": "address",
          "name": "account",
          "type": "address"
        }
      ],
      "name": "AddressInsufficientBalance",
      "type": "error"
    },
    {
      "inputs": [],
      "name": "FailedInnerCall",
      "type": "error"
    },
    {
      "inputs": [],
      "name": "InvalidDelegate",
      "type": "error"
    },
    {
      "inputs": [],
      "name": "InvalidEndpointCall",
      "type": "error"
    },
    {
      "inputs": [],
      "name": "LzTokenUnavailable",
      "type": "error"
    },
    {
      "inputs": [
        {
          "internalType": "uint32",
          "name": "eid",
          "type": "uint32"
        }
      ],
      "name": "NoPeer",
      "type": "error"
    },
    {
      "inputs": [
        {
          "internalType": "uint256",
          "name": "msgValue",
          "type": "uint256"
        }
      ],
      "name": "NotEnoughNative",
      "type": "error"
    },
    {
      "inputs": [
        {
          "internalType": "address",
          "name": "addr",
          "type": "address"
        }
      ],
      "name": "OnlyEndpoint",
      "type": "error"
    },
    {
      "inputs": [
        {
          "internalType": "uint32",
          "name": "eid",
          "type": "uint32"
        },
        {
          "internalType": "bytes32",
          "name": "sender",
          "type": "bytes32"
        }
      ],
      "name": "OnlyPeer",
      "type": "error"
    },
    {
      "inputs": [
        {
          "internalType": "address",
          "name": "owner",
          "type": "address"
        }
      ],
      "name": "OwnableInvalidOwner",
      "type": "error"
    },
    {
      "inputs": [
        {
          "internalType": "address",
          "name": "account",
          "type": "address"
        }
      ],
      "name": "OwnableUnauthorizedAccount",
      "type": "error"
    },
    {
      "inputs": [
        {
          "internalType": "address",
          "name": "token",
          "type": "address"
        }
      ],
      "name": "SafeERC20FailedOperation",
      "type": "error"
    },
    {
      "anonymous": false,
      "inputs": [
        {
          "indexed": true,
          "internalType": "address",
          "name": "previousOwner",
          "type": "address"
        },
        {
          "indexed": true,
          "internalType": "address",
          "name": "newOwner",
          "type": "address"
        }
      ],
      "name": "OwnershipTransferred",
      "type": "event"
    },
    {
      "anonymous": false,
      "inputs": [
        {
          "indexed": false,
          "internalType": "uint32",
          "name": "eid",
          "type": "uint32"
        },
        {
          "indexed": false,
          "internalType": "bytes32",
          "name": "peer",
          "type": "bytes32"
        }
      ],
      "name": "PeerSet",
      "type": "event"
    },
    {
      "inputs": [
        {
          "components": [
            {
              "internalType": "uint32",
              "name": "srcEid",
              "type": "uint32"
            },
            {
              "internalType": "bytes32",
              "name": "sender",
              "type": "bytes32"
            },
            {
              "internalType": "uint64",
              "name": "nonce",
              "type": "uint64"
            }
          ],
          "internalType": "struct Origin",
          "name": "origin",
          "type": "tuple"
        }
      ],
      "name": "allowInitializePath",
      "outputs": [
        {
          "internalType": "bool",
          "name": "",
          "type": "bool"
        }
      ],
      "stateMutability": "view",
      "type": "function"
    },
    {
      "inputs": [],
      "name": "composeMsgSender",
      "outputs": [
        {
          "internalType": "address",
          "name": "sender",
          "type": "address"
        }
      ],
      "stateMutability": "view",
      "type": "function"
    },
    {
      "inputs": [],
      "name": "data",
      "outputs": [
        {
          "internalType": "string",
          "name": "",
          "type": "string"
        }
      ],
      "stateMutability": "view",
      "type": "function"
    },
    {
      "inputs": [],
      "name": "endpoint",
      "outputs": [
        {
          "internalType": "contract ILayerZeroEndpointV2",
          "name": "",
          "type": "address"
        }
      ],
      "stateMutability": "view",
      "type": "function"
    },
    {
      "inputs": [
        {
          "components": [
            {
              "internalType": "uint32",
              "name": "srcEid",
              "type": "uint32"
            },
            {
              "internalType": "bytes32",
              "name": "sender",
              "type": "bytes32"
            },
            {
              "internalType": "uint64",
              "name": "nonce",
              "type": "uint64"
            }
          ],
          "internalType": "struct Origin",
          "name": "_origin",
          "type": "tuple"
        },
        {
          "internalType": "bytes32",
          "name": "_guid",
          "type": "bytes32"
        },
        {
          "internalType": "bytes",
          "name": "_message",
          "type": "bytes"
        },
        {
          "internalType": "address",
          "name": "_executor",
          "type": "address"
        },
        {
          "internalType": "bytes",
          "name": "_extraData",
          "type": "bytes"
        }
      ],
      "name": "lzReceive",
      "outputs": [],
      "stateMutability": "payable",
      "type": "function"
    },
    {
      "inputs": [
        {
          "internalType": "uint32[]",
          "name": "_dstEids",
          "type": "uint32[]"
        },
        {
          "internalType": "bytes[]",
          "name": "_options",
          "type": "bytes[]"
        }
      ],
      "name": "multiSend",
      "outputs": [],
      "stateMutability": "payable",
      "type": "function"
    },
    {
      "inputs": [
        {
          "internalType": "uint32",
          "name": "",
          "type": "uint32"
        },
        {
          "internalType": "bytes32",
          "name": "",
          "type": "bytes32"
        }
      ],
      "name": "nextNonce",
      "outputs": [
        {
          "internalType": "uint64",
          "name": "nonce",
          "type": "uint64"
        }
      ],
      "stateMutability": "view",
      "type": "function"
    },
    {
      "inputs": [],
      "name": "oAppVersion",
      "outputs": [
        {
          "internalType": "uint64",
          "name": "senderVersion",
          "type": "uint64"
        },
        {
          "internalType": "uint64",
          "name": "receiverVersion",
          "type": "uint64"
        }
      ],
      "stateMutability": "pure",
      "type": "function"
    },
    {
      "inputs": [],
      "name": "owner",
      "outputs": [
        {
          "internalType": "address",
          "name": "",
          "type": "address"
        }
      ],
      "stateMutability": "view",
      "type": "function"
    },
    {
      "inputs": [
        {
          "internalType": "uint32",
          "name": "eid",
          "type": "uint32"
        }
      ],
      "name": "peers",
      "outputs": [
        {
          "internalType": "bytes32",
          "name": "peer",
          "type": "bytes32"
        }
      ],
      "stateMutability": "view",
      "type": "function"
    },
    {
      "inputs": [
        {
          "internalType": "uint32",
          "name": "_dstEid",
          "type": "uint32"
        },
        {
          "internalType": "string",
          "name": "_message",
          "type": "string"
        },
        {
          "internalType": "bytes",
          "name": "_options",
          "type": "bytes"
        },
        {
          "internalType": "bool",
          "name": "_payInLzToken",
          "type": "bool"
        }
      ],
      "name": "quote",
      "outputs": [
        {
          "components": [
            {
              "internalType": "uint256",
              "name": "nativeFee",
              "type": "uint256"
            },
            {
              "internalType": "uint256",
              "name": "lzTokenFee",
              "type": "uint256"
            }
          ],
          "internalType": "struct MessagingFee",
          "name": "fee",
          "type": "tuple"
        }
      ],
      "stateMutability": "view",
      "type": "function"
    },
    {
      "inputs": [],
      "name": "renounceOwnership",
      "outputs": [],
      "stateMutability": "nonpayable",
      "type": "function"
    },
    {
      "inputs": [
        {
          "internalType": "uint32",
          "name": "_dstEid",
          "type": "uint32"
        },
        {
          "internalType": "bytes",
          "name": "_options",
          "type": "bytes"
        }
      ],
      "name": "send",
      "outputs": [
        {
          "components": [
            {
              "internalType": "bytes32",
              "name": "guid",
              "type": "bytes32"
            },
            {
              "internalType": "uint64",
              "name": "nonce",
              "type": "uint64"
            },
            {
              "components": [
                {
                  "internalType": "uint256",
                  "name": "nativeFee",
                  "type": "uint256"
                },
                {
                  "internalType": "uint256",
                  "name": "lzTokenFee",
                  "type": "uint256"
                }
              ],
              "internalType": "struct MessagingFee",
              "name": "fee",
              "type": "tuple"
            }
          ],
          "internalType": "struct MessagingReceipt",
          "name": "receipt",
          "type": "tuple"
        }
      ],
      "stateMutability": "payable",
      "type": "function"
    },
    {
      "inputs": [
        {
          "internalType": "address",
          "name": "_delegate",
          "type": "address"
        }
      ],
      "name": "setDelegate",
      "outputs": [],
      "stateMutability": "nonpayable",
      "type": "function"
    },
    {
      "inputs": [
        {
          "internalType": "uint32",
          "name": "_eid",
          "type": "uint32"
        },
        {
          "internalType": "bytes32",
          "name": "_peer",
          "type": "bytes32"
        }
      ],
      "name": "setPeer",
      "outputs": [],
      "stateMutability": "nonpayable",
      "type": "function"
    },
    {
      "inputs": [
        {
          "internalType": "address",
          "name": "newOwner",
          "type": "address"
        }
      ],
      "name": "transferOwnership",
      "outputs": [],
      "stateMutability": "nonpayable",
      "type": "function"
    }
  ],
  "transactionHash": "0x98173afd1a560835353caee891edfe2e55614f9ff4a2cea51dbf5ac6983d59b3",
  "args": [
    "0x1a44076050125825900e736c501f859c50fE728c",
    "0xD3c51DE38171F880Fc52Cc68F7d4e4e24DfdefC9"
  ],
  "numDeployments": 1,
  "solcInputHash": "f61a91bac6a9987ab2f62864162886c7",
  "bytecode": "0x60e0604052601560a09081527f4e6f7468696e67207265636569766564207965742e000000000000000000000060c0526002906200003e908262000241565b503480156200004c57600080fd5b5060405162001a5238038062001a528339810160408190526200006f916200032a565b81818181806001600160a01b038116620000a357604051631e4fbdf760e01b81526000600482015260240160405180910390fd5b620000ae816200014a565b506001600160a01b038083166080528116620000dd57604051632d618d8160e21b815260040160405180910390fd5b60805160405163ca5eb5e160e01b81526001600160a01b0383811660048301529091169063ca5eb5e190602401600060405180830381600087803b1580156200012557600080fd5b505af11580156200013a573d6000803e3d6000fd5b5050505050505050505062000362565b600080546001600160a01b038381166001600160a01b0319831681178455604051919092169283917f8be0079c531659141344cd1fd0a4f28419497f9722a3daafe3b4186f6b6457e09190a35050565b634e487b7160e01b600052604160045260246000fd5b600181811c90821680620001c557607f821691505b602082108103620001e657634e487b7160e01b600052602260045260246000fd5b50919050565b601f8211156200023c576000816000526020600020601f850160051c81016020861015620002175750805b601f850160051c820191505b81811015620002385782815560010162000223565b5050505b505050565b81516001600160401b038111156200025d576200025d6200019a565b62000275816200026e8454620001b0565b84620001ec565b602080601f831160018114620002ad5760008415620002945750858301515b600019600386901b1c1916600185901b17855562000238565b600085815260208120601f198616915b82811015620002de57888601518255948401946001909101908401620002bd565b5085821015620002fd5787850151600019600388901b60f8161c191681555b5050505050600190811b01905550565b80516001600160a01b03811681146200032557600080fd5b919050565b600080604083850312156200033e57600080fd5b62000349836200030d565b915062000359602084016200030d565b90509250929050565b6080516116aa620003a860003960008181610189015281816103d50152818161068b015281816107d801528181610a0c01528181610afa0152610bb301526116aa6000f3fe6080604052600436106100f35760003560e01c80638da5cb5b1161008a578063ca5eb5e111610059578063ca5eb5e1146102b1578063f2fde38b146102d1578063f77e5dd3146102f1578063ff7bd03d1461031e57600080fd5b80638da5cb5b14610232578063946f750814610250578063b92d0eff14610263578063bb0b6a531461027657600080fd5b80635e280f11116100c65780635e280f1114610177578063715018a6146101c357806373d4a13a146101d85780637d25a05e146101fa57600080fd5b80630aad0ecc146100f857806313137d651461012157806317442b70146101365780633400288b14610157575b600080fd5b61010b610106366004610e74565b61034e565b6040516101189190610ec6565b60405180910390f35b61013461012f366004610f35565b6103d3565b005b34801561014257600080fd5b50604080516001808252602082015201610118565b34801561016357600080fd5b50610134610172366004610fd4565b610493565b34801561018357600080fd5b506101ab7f000000000000000000000000000000000000000000000000000000000000000081565b6040516001600160a01b039091168152602001610118565b3480156101cf57600080fd5b506101346104f0565b3480156101e457600080fd5b506101ed610504565b604051610118919061104e565b34801561020657600080fd5b5061021a610215366004610fd4565b610592565b6040516001600160401b039091168152602001610118565b34801561023e57600080fd5b506000546001600160a01b03166101ab565b61013461025e3660046110a5565b61059b565b34801561026f57600080fd5b50306101ab565b34801561028257600080fd5b506102a3610291366004611110565b60016020526000908152604090205481565b604051908152602001610118565b3480156102bd57600080fd5b506101346102cc36600461112b565b610664565b3480156102dd57600080fd5b506101346102ec36600461112b565b6106e3565b3480156102fd57600080fd5b5061031161030c366004611201565b610721565b604051610118919061129b565b34801561032a57600080fd5b5061033e6103393660046112b2565b61076f565b6040519015158152602001610118565b610356610dcc565b6040805160208082018190526000828401528251808303840181526080601f870183900490920283018201909352606082018581526103ca92889285929189918991829101838280828437600092018290525060408051808201909152348152602081019190915292503391506107a59050565b95945050505050565b7f00000000000000000000000000000000000000000000000000000000000000006001600160a01b03163314610423576040516391ac5e4f60e01b81523360048201526024015b60405180910390fd5b6020870180359061043d90610438908a611110565b6108b0565b1461047b5761044f6020880188611110565b60405163309afaf360e21b815263ffffffff90911660048201526020880135602482015260440161041a565b61048a878787878787876108ec565b50505050505050565b61049b61090f565b63ffffffff8216600081815260016020908152604091829020849055815192835282018390527f238399d427b947898edb290f5ff0f9109849b1c3ba196a42e35f00c50a54b98b910160405180910390a15050565b6104f861090f565b610502600061093c565b565b60028054610511906112ce565b80601f016020809104026020016040519081016040528092919081815260200182805461053d906112ce565b801561058a5780601f1061055f5761010080835404028352916020019161058a565b820191906000526020600020905b81548152906001019060200180831161056d57829003601f168201915b505050505081565b60005b92915050565b6000805b8481101561061e5761060a8686838181106105bc576105bc611302565b90506020020160208101906105d19190611110565b604051806020016040528060008152508686858181106105f3576105f3611302565b90506020028101906106059190611318565b61098c565b610614908361135e565b915060010161059f565b508034101561065d5760405162461bcd60e51b815260206004820152600b60248201526a11995948139bdd0813595d60aa1b604482015260640161041a565b5050505050565b61066c61090f565b60405163ca5eb5e160e01b81526001600160a01b0382811660048301527f0000000000000000000000000000000000000000000000000000000000000000169063ca5eb5e190602401600060405180830381600087803b1580156106cf57600080fd5b505af115801561065d573d6000803e3d6000fd5b6106eb61090f565b6001600160a01b03811661071557604051631e4fbdf760e01b81526000600482015260240161041a565b61071e8161093c565b50565b6040805180820190915260008082526020820152600084604051602001610748919061104e565b6040516020818303038152906040529050610765868286866109f6565b9695505050505050565b60006020820180359060019083906107879086611110565b63ffffffff1681526020810191909152604001600020541492915050565b6107ad610dcc565b60006107bc8460000151610ace565b6020850151909150156107d6576107d68460200151610af6565b7f00000000000000000000000000000000000000000000000000000000000000006001600160a01b0316632637a450826040518060a001604052808b63ffffffff1681526020016108268c6108b0565b81526020018a815260200189815260200160008960200151111515815250866040518463ffffffff1660e01b815260040161086292919061137f565b60806040518083038185885af1158015610880573d6000803e3d6000fd5b50505050506040513d601f19601f820116820180604052508101906108a59190611446565b979650505050505050565b63ffffffff8116600090815260016020526040812054806105955760405163f6ff4fb760e01b815263ffffffff8416600482015260240161041a565b6108f8848601866114b7565b6002906109059082611543565b5050505050505050565b6000546001600160a01b031633146105025760405163118cdaa760e01b815233600482015260240161041a565b600080546001600160a01b038381166001600160a01b0319831681178455604051919092169283917f8be0079c531659141344cd1fd0a4f28419497f9722a3daafe3b4186f6b6457e09190a35050565b6000806109e7868686868080601f016020809104026020016040519081016040528093929190818152602001838380828437600092018290525060408051808201909152348152602081019190915292503391506107a59050565b60400151519695505050505050565b60408051808201909152600080825260208201527f00000000000000000000000000000000000000000000000000000000000000006001600160a01b031663ddc28c586040518060a001604052808863ffffffff168152602001610a59896108b0565b8152602001878152602001868152602001851515815250306040518363ffffffff1660e01b8152600401610a8e92919061137f565b6040805180830381865afa158015610aaa573d6000803e3d6000fd5b505050506040513d601f19601f820116820180604052508101906103ca9190611602565b6000813414610af2576040516304fb820960e51b815234600482015260240161041a565b5090565b60007f00000000000000000000000000000000000000000000000000000000000000006001600160a01b031663e4fe1d946040518163ffffffff1660e01b8152600401602060405180830381865afa158015610b56573d6000803e3d6000fd5b505050506040513d601f19601f82011682018060405250810190610b7a919061161e565b90506001600160a01b038116610ba3576040516329b99a9560e11b815260040160405180910390fd5b610bd86001600160a01b038216337f000000000000000000000000000000000000000000000000000000000000000085610bdc565b5050565b604080516001600160a01b0385811660248301528416604482015260648082018490528251808303909101815260849091019091526020810180516001600160e01b03166323b872dd60e01b179052610c36908590610c3c565b50505050565b6000610c516001600160a01b03841683610ca4565b90508051600014158015610c76575080806020019051810190610c74919061163b565b155b15610c9f57604051635274afe760e01b81526001600160a01b038416600482015260240161041a565b505050565b6060610cb283836000610cb9565b9392505050565b606081471015610cde5760405163cd78605960e01b815230600482015260240161041a565b600080856001600160a01b03168486604051610cfa9190611658565b60006040518083038185875af1925050503d8060008114610d37576040519150601f19603f3d011682016040523d82523d6000602084013e610d3c565b606091505b5091509150610765868383606082610d5c57610d5782610da3565b610cb2565b8151158015610d7357506001600160a01b0384163b155b15610d9c57604051639996b31560e01b81526001600160a01b038516600482015260240161041a565b5080610cb2565b805115610db35780518082602001fd5b604051630a12f52160e11b815260040160405180910390fd5b60405180606001604052806000801916815260200160006001600160401b03168152602001610e0e604051806040016040528060008152602001600081525090565b905290565b803563ffffffff81168114610e2757600080fd5b919050565b60008083601f840112610e3e57600080fd5b5081356001600160401b03811115610e5557600080fd5b602083019150836020828501011115610e6d57600080fd5b9250929050565b600080600060408486031215610e8957600080fd5b610e9284610e13565b925060208401356001600160401b03811115610ead57600080fd5b610eb986828701610e2c565b9497909650939450505050565b6000608082019050825182526001600160401b0360208401511660208301526040830151610f01604084018280518252602090810151910152565b5092915050565b600060608284031215610f1a57600080fd5b50919050565b6001600160a01b038116811461071e57600080fd5b600080600080600080600060e0888a031215610f5057600080fd5b610f5a8989610f08565b96506060880135955060808801356001600160401b0380821115610f7d57600080fd5b610f898b838c01610e2c565b909750955060a08a01359150610f9e82610f20565b90935060c08901359080821115610fb457600080fd5b50610fc18a828b01610e2c565b989b979a50959850939692959293505050565b60008060408385031215610fe757600080fd5b610ff083610e13565b946020939093013593505050565b60005b83811015611019578181015183820152602001611001565b50506000910152565b6000815180845261103a816020860160208601610ffe565b601f01601f19169290920160200192915050565b602081526000610cb26020830184611022565b60008083601f84011261107357600080fd5b5081356001600160401b0381111561108a57600080fd5b6020830191508360208260051b8501011115610e6d57600080fd5b600080600080604085870312156110bb57600080fd5b84356001600160401b03808211156110d257600080fd5b6110de88838901611061565b909650945060208701359150808211156110f757600080fd5b5061110487828801611061565b95989497509550505050565b60006020828403121561112257600080fd5b610cb282610e13565b60006020828403121561113d57600080fd5b8135610cb281610f20565b634e487b7160e01b600052604160045260246000fd5b60006001600160401b038084111561117857611178611148565b604051601f8501601f19908116603f011681019082821181831017156111a0576111a0611148565b816040528093508581528686860111156111b957600080fd5b858560208301376000602087830101525050509392505050565b600082601f8301126111e457600080fd5b610cb28383356020850161115e565b801515811461071e57600080fd5b6000806000806080858703121561121757600080fd5b61122085610e13565b935060208501356001600160401b038082111561123c57600080fd5b611248888389016111d3565b9450604087013591508082111561125e57600080fd5b508501601f8101871361127057600080fd5b61127f8782356020840161115e565b9250506060850135611290816111f3565b939692955090935050565b815181526020808301519082015260408101610595565b6000606082840312156112c457600080fd5b610cb28383610f08565b600181811c908216806112e257607f821691505b602082108103610f1a57634e487b7160e01b600052602260045260246000fd5b634e487b7160e01b600052603260045260246000fd5b6000808335601e1984360301811261132f57600080fd5b8301803591506001600160401b0382111561134957600080fd5b602001915036819003821315610e6d57600080fd5b8082018082111561059557634e487b7160e01b600052601160045260246000fd5b6040815263ffffffff8351166040820152602083015160608201526000604084015160a060808401526113b560e0840182611022565b90506060850151603f198483030160a08501526113d28282611022565b60809690960151151560c08501525050506001600160a01b039190911660209091015290565b60006040828403121561140a57600080fd5b604051604081018181106001600160401b038211171561142c5761142c611148565b604052825181526020928301519281019290925250919050565b60006080828403121561145857600080fd5b604051606081016001600160401b03828210818311171561147b5761147b611148565b816040528451835260208501519150808216821461149857600080fd5b5060208201526114ab84604085016113f8565b60408201529392505050565b6000602082840312156114c957600080fd5b81356001600160401b038111156114df57600080fd5b6114eb848285016111d3565b949350505050565b601f821115610c9f576000816000526020600020601f850160051c8101602086101561151c5750805b601f850160051c820191505b8181101561153b57828155600101611528565b505050505050565b81516001600160401b0381111561155c5761155c611148565b6115708161156a84546112ce565b846114f3565b602080601f8311600181146115a5576000841561158d5750858301515b600019600386901b1c1916600185901b17855561153b565b600085815260208120601f198616915b828110156115d4578886015182559484019460019091019084016115b5565b50858210156115f25787850151600019600388901b60f8161c191681555b5050505050600190811b01905550565b60006040828403121561161457600080fd5b610cb283836113f8565b60006020828403121561163057600080fd5b8151610cb281610f20565b60006020828403121561164d57600080fd5b8151610cb2816111f3565b6000825161166a818460208701610ffe565b919091019291505056fea26469706673582212209a4556ab966815a0fc6538682c877cc282fb24cfde9b5d518c373ce80946f54d64736f6c63430008160033",
  "devdoc": {
    "errors": {
      "AddressEmptyCode(address)": [
        {
          "details": "There's no code at `target` (it is not a contract)."
        }
      ],
      "AddressInsufficientBalance(address)": [
        {
          "details": "The ETH balance of the account is not enough to perform the operation."
        }
      ],
      "FailedInnerCall()": [
        {
          "details": "A call to an address target failed. The target may have reverted."
        }
      ],
      "OwnableInvalidOwner(address)": [
        {
          "details": "The owner is not a valid owner account. (eg. `address(0)`)"
        }
      ],
      "OwnableUnauthorizedAccount(address)": [
        {
          "details": "The caller account is not authorized to perform an operation."
        }
      ],
      "SafeERC20FailedOperation(address)": [
        {
          "details": "An operation with an ERC20 token failed."
        }
      ]
    },
    "kind": "dev",
    "methods": {
      "allowInitializePath((uint32,bytes32,uint64))": {
        "details": "This indicates to the endpoint that the OApp has enabled msgs for this particular path to be received.This defaults to assuming if a peer has been set, its initialized. Can be overridden by the OApp if there is other logic to determine this.",
        "params": {
          "origin": "The origin information containing the source endpoint and sender address."
        },
        "returns": {
          "_0": "Whether the path has been initialized."
        }
      },
      "composeMsgSender()": {
        "details": "Applications can optionally choose to implement a separate composeMsg sender that is NOT the bridging layer.The default sender IS the OApp implementer.",
        "returns": {
          "sender": "The address responsible for 'sending' composeMsg's to the Endpoint."
        }
      },
      "lzReceive((uint32,bytes32,uint64),bytes32,bytes,address,bytes)": {
        "details": "Entry point for receiving messages or packets from the endpoint.Entry point for receiving msg/packet from the LayerZero endpoint.",
        "params": {
          "_executor": "The address of the executor for the received message.",
          "_extraData": "Additional arbitrary data provided by the corresponding executor.",
          "_guid": "The unique identifier for the received LayerZero message.",
          "_message": "The payload of the received message.",
          "_origin": "The origin information containing the source endpoint and sender address.  - srcEid: The source chain endpoint ID.  - sender: The sender address on the src chain.  - nonce: The nonce of the message."
        }
      },
      "nextNonce(uint32,bytes32)": {
        "details": "_srcEid The source endpoint ID._sender The sender address.The path nonce starts from 1. If 0 is returned it means that there is NO nonce ordered enforcement.Is required by the off-chain executor to determine the OApp expects msg execution is ordered.This is also enforced by the OApp.By default this is NOT enabled. ie. nextNonce is hardcoded to return 0.",
        "returns": {
          "nonce": "The next nonce."
        }
      },
      "oAppVersion()": {
        "returns": {
          "receiverVersion": "The version of the OAppReceiver.sol implementation.",
          "senderVersion": "The version of the OAppSender.sol implementation."
        }
      },
      "owner()": {
        "details": "Returns the address of the current owner."
      },
      "quote(uint32,string,bytes,bool)": {
        "params": {
          "_dstEid": "Destination chain's endpoint ID.",
          "_message": "The message.",
          "_options": "Message execution options (e.g., for sending gas to destination).",
          "_payInLzToken": "Whether to return fee in ZRO token."
        }
      },
      "renounceOwnership()": {
        "details": "Leaves the contract without owner. It will not be possible to call `onlyOwner` functions. Can only be called by the current owner. NOTE: Renouncing ownership will leave the contract without an owner, thereby disabling any functionality that is only available to the owner."
      },
      "setDelegate(address)": {
        "details": "Only the owner/admin of the OApp can call this function.Provides the ability for a delegate to set configs, on behalf of the OApp, directly on the Endpoint contract.",
        "params": {
          "_delegate": "The address of the delegate to be set."
        }
      },
      "setPeer(uint32,bytes32)": {
        "details": "Only the owner/admin of the OApp can call this function.Indicates that the peer is trusted to send LayerZero messages to this OApp.Set this to bytes32(0) to remove the peer address.Peer is a bytes32 to accommodate non-evm chains.",
        "params": {
          "_eid": "The endpoint ID.",
          "_peer": "The address of the peer to be associated with the corresponding endpoint."
        }
      },
      "transferOwnership(address)": {
        "details": "Transfers ownership of the contract to a new account (`newOwner`). Can only be called by the current owner."
      }
    },
    "version": 1
  },
  "userdoc": {
    "kind": "user",
    "methods": {
      "allowInitializePath((uint32,bytes32,uint64))": {
        "notice": "Checks if the path initialization is allowed based on the provided origin."
      },
      "composeMsgSender()": {
        "notice": "Retrieves the address responsible for 'sending' composeMsg's to the Endpoint."
      },
      "endpoint()": {
        "notice": "Retrieves the LayerZero endpoint associated with the OApp."
      },
      "nextNonce(uint32,bytes32)": {
        "notice": "Retrieves the next nonce for a given source endpoint and sender address."
      },
      "oAppVersion()": {
        "notice": "Retrieves the OApp version information."
      },
      "peers(uint32)": {
        "notice": "Retrieves the peer (OApp) associated with a corresponding endpoint."
      },
      "quote(uint32,string,bytes,bool)": {
        "notice": "Quotes the gas needed to pay for the full omnichain transaction in native gas or ZRO token."
      },
      "setDelegate(address)": {
        "notice": "Sets the delegate address for the OApp."
      },
      "setPeer(uint32,bytes32)": {
        "notice": "Sets the peer address (OApp instance) for a corresponding endpoint."
      }
    },
    "version": 1
  },
  "storageLayout": {
    "storage": [
      {
        "astId": 1297,
        "contract": "contracts/OmniMultisender.sol:OmniMultisender",
        "label": "_owner",
        "offset": 0,
        "slot": "0",
        "type": "t_address"
      },
      {
        "astId": 64,
        "contract": "contracts/OmniMultisender.sol:OmniMultisender",
        "label": "peers",
        "offset": 0,
        "slot": "1",
        "type": "t_mapping(t_uint32,t_bytes32)"
      },
      {
        "astId": 2287,
        "contract": "contracts/OmniMultisender.sol:OmniMultisender",
        "label": "data",
        "offset": 0,
        "slot": "2",
        "type": "t_string_storage"
      }
    ],
    "types": {
      "t_address": {
        "encoding": "inplace",
        "label": "address",
        "numberOfBytes": "20"
      },
      "t_bytes32": {
        "encoding": "inplace",
        "label": "bytes32",
        "numberOfBytes": "32"
      },
      "t_mapping(t_uint32,t_bytes32)": {
        "encoding": "mapping",
        "key": "t_uint32",
        "label": "mapping(uint32 => bytes32)",
        "numberOfBytes": "32",
        "value": "t_bytes32"
      },
      "t_string_storage": {
        "encoding": "bytes",
        "label": "string",
        "numberOfBytes": "32"
      },
      "t_uint32": {
        "encoding": "inplace",
        "label": "uint32",
        "numberOfBytes": "4"
      }
    }
  }
}